:0400000007EF00F016
:0A0008004182F4ED1CF04DEF21F0F1
:10080000002047726175732043656C7369757300CE
:1008100050455249474F2042414958410054454DA7
:1008200050455241545552410050455249474F207E
:10083000414C54410054656D70657261747572610C
:100840000025332E326600494E46004E414E006967
:0B0850006E66006E616E006C660000BA
:10085C00000E0001C06F000EBF6F9BC0D1F09CC09A
:10086C00D2F09DC0D3F09EC0D4F0D4BF42EF04F0C0
:10087C0040EF04F058EF04F0000EC06F010EBF6F94
:10088C00D1C060F0D2C061F0D3C062F0D4C063F0CC
:10089C0054EC22F060C0D1F061C0D2F062C0D3F051
:1008AC0063C0D4F0000E0001D86F000ED76FF9C0F2
:1008BC00C3F0FAC0C4F0BF51C011D8A468EF04F063
:1008CC006AEF04F071EF04F02FA46FEF04F071EFF6
:1008DC0004F08BEF04F0BF51C011D8A478EF04F0F2
:1008EC007AEF04F080EF04F0000EA66F2B0EA56FCC
:1008FC0084EF04F0000EA66F2D0EA56FA5C000F1BD
:10090C00D74BD82BC307D8A0C407D1C060F0D2C036
:10091C0061F0D3C062F0D4C063F074EC1CF0000141
:10092C0060056111D8A49DEF04F09FEF04F0F6EF81
:10093C0004F0BF0EA06FFF0EA16F9F51A26FA36BAF
:10094C00A051A227A151A323A3510AE11A0EA25D23
:10095C00D8A0B3EF04F0B6EF04F0010EB7EF04F03B
:10096C00000EA76FA86BA751A811D8B4C0EF04F064
:10097C00C2EF04F0D0EF04F0000ED725606F010E2B
:10098C00D821616F470E626F080E636FF4EC20F094
:10099C00DCEF04F0000ED725606F010ED821616FDB
:1009AC004F0E626F080E636FF4EC20F00001FD0E29
:1009BC00C327FF0EC42399C070F09AC071F0000ECB
:1009CC000001726F010E736FC3C074F0C4C075F078
:1009DC0045EC1EF070C099F071C09AF060EF0AF00F
:1009EC00D1C060F0D2C061F0D3C062F0D4C063F06B
:1009FC0074EC1CF0000160516111D8A408EF05F0F3
:100A0C000AEF05F049EF05F0BF0EA06FFF0EA16FC6
:100A1C009F51A26FA36BA051A227A151A323A35155
:100A2C000AE11A0EA25DD8A01EEF05F021EF05F029
:100A3C00010E22EF05F0000EA96FAA6BA951AA11A5
:100A4C00D8B42BEF05F02DEF05F03BEF05F0000EC1
:100A5C00D725606F010ED821616F4B0E626F080EA7
:100A6C00636FF4EC20F0DCEF04F0000ED725606F20
:100A7C00010ED821616F530E626F080E636FF4EC98
:100A8C0020F0DCEF04F0000ED96F000EDA6F800E50
:100A9C00DB6F3F0EDC6F000ED66F000ED56FD1C032
:100AAC0060F0D2C061F0D3C062F0D4C063F0000E2D
:100ABC00646F000E656F000E666F000E676FBCEC06
:100ACC001FF00001D8B06DEF05F06FEF05F0F4EFFB
:100ADC0005F08EEF05F0D9C074F0DAC075F0DBC00C
:100AEC0076F0DCC077F0000E786F000E796F200E78
:100AFC007A6F410E7B6FD8EC11F074C0D9F075C0D1
:100B0C00DAF076C0DBF077C0DCF00001D54BD62BE9
:100B1C00D1C08DF0D2C08EF0D3C08FF0D4C090F085
:100B2C00000E786F000E796F200E7A6F410E7B6F7E
:100B3C00D9C074F0DAC075F0DBC076F0DCC077F0A9
:100B4C00D8EC11F074C091F075C092F076C093F0AF
:100B5C0077C094F06FEC1BF00001D8B0B8EF05F043
:100B6C00BAEF05F071EF05F0DAEF05F0D9C060F0DF
:100B7C00DAC061F0DBC062F0DCC063F0000E646FC1
:100B8C00000E656F200E666F410E676FEEEC13F072
:100B9C0060C0D9F061C0DAF062C0DBF063C0DCF099
:100BAC000001D507D8A0D607D1C08DF0D2C08EF0E9
:100BBC00D3C08FF0D4C090F0D9C091F0DAC092F0CD
:100BCC00DBC093F0DCC094F06FEC1BF00001D8A0FC
:100BDC00F2EF05F0F4EF05F0BCEF05F09FC066F006
:100BEC00676BC3EC20F000016651C66FC6C0C5F040
:100BFC00670EC619D8A405EF06F007EF06F02DEF27
:100C0C0006F0FB51FC11D8A40EEF06F010EF06F025
:100C1C0014EF06F0000EFC6F010EFB6FFCBF21EF12
:100C2C0006F0FC5106E1FB05D8B01FEF06F021EFF2
:100C3C0006F027EF06F0000EC26F060EC16F36EFFE
:100C4C0006F0FBC0C1F0FCC0C2F036EF06F0FCBFF2
:100C5C0032EF06F034EF06F021EF06F027EF06F046
:100C6C00670EC619D8A43DEF06F03FEF06F06EEF05
:100C7C0006F0D6AF4DEF06F0FC0ED55DFF0ED65943
:100C8C00D8A04BEF06F04DEF06F06CEF06F0FF0E20
:100C9C00A06FFF0EA16FC1C0A2F0C2C0A3F0A05103
:100CAC00A227A151A323D551A25DA351800AA46F01
:100CBC00D651800AA459D8A066EF06F068EF06F06A
:100CCC006CEF06F0660EC56F6EEF06F0650EC56F25
:100CDC00C1C0B7F0C2C0B8F0670EC619D8A479EF7E
:100CEC0006F07BEF06F08BEF06F0660EC519D8A464
:100CFC0082EF06F084EF06F08DEF06F0D6BF8BEF97
:100D0C0006F089EF06F08DEF06F0B74BB82B660EA8
:100D1C00C519D8A494EF06F096EF06F0B6EF06F0DE
:100D2C00D6BF9DEF06F09BEF06F0A9EF06F0000E84
:100D3C00D96F000EDA6F800EDB6F3F0EDC6F000E8A
:100D4C00D66F000ED56F670EC619D8B4B0EF06F08B
:100D5C00B2EF06F0B6EF06F0D551B727D651B8234F
:100D6C00000ED06F000ECF6FD1C0C7F0D2C0C8F04C
:100D7C00D3C0C9F0D4C0CAF0D9C0B9F0DAC0BAF047
:100D8C00DBC0BBF0DCC0BCF048EF07F0C7C060F0C4
:100D9C00C8C061F0C9C062F0CAC063F0D9C064F0C9
:100DAC00DAC065F0DBC066F0DCC067F0EEEC13F087
:100DBC0060C079F061C07AF062C07BF063C07CF0F7
:100DCC00BCEC15F079C0CBF07AC0CCF07BC0CDF088
:100DDC007CC0CEF0CBC060F0CCC061F0CDC062F076
:100DEC00CEC063F0EBEC1AF060C0BDF061C0BEF099
:100DFC00C7C08DF0C8C08EF0C9C08FF0CAC090F0CB
:100E0C00D9C078F0DAC079F0DBC07AF0DCC07BF0C6
:100E1C00CBC074F0CCC075F0CDC076F0CEC077F0FE
:100E2C00D8EC11F074C091F075C092F076C093F0CC
:100E3C0077C094F013EC22F08DC0C7F08EC0C8F0D0
:100E4C008FC0C9F090C0CAF0D9C060F0DAC061F0B0
:100E5C00DBC062F0DCC063F0000E0001646F000EBA
:100E6C00656F200E666F410E676FEEEC13F060C07D
:100E7C00D9F061C0DAF062C0DBF063C0DCF00001D5
:100E8C00CF4BD02BB751CF5DD051800AA06FB8514A
:100E9C00800AA059D8A055EF07F057EF07F0CCEF18
:100EAC0006F0D9C074F0DAC075F0DBC076F0DCC0A7
:100EBC0077F0000E786F000E796FA00E7A6F400EEF
:100ECC007B6FD8EC11F074C0CBF075C0CCF076C051
:100EDC00CDF077C0CEF0C7C08DF0C8C08EF0C9C0C1
:100EEC008FF0CAC090F0CBC091F0CCC092F0CDC0C6
:100EFC0093F0CEC094F06FEC1BF00001D8B089EFEA
:100F0C0007F08BEF07F095EF07F0000ECB6F000E9C
:100F1C00CC6F000ECD6F000ECE6FBEEF07F0C7C0CA
:100F2C0060F0C8C061F0C9C062F0CAC063F0CBC049
:100F3C0064F0CCC065F0CDC066F0CEC067F0BCEC00
:100F4C001FF00001D8A0ADEF07F0AFEF07F0BEEF38
:100F5C0007F0BDB1B4EF07F0B6EF07F0BEEF07F046
:100F6C00000ECB6F000ECC6F000ECD6F000ECE6F4F
:100F7C00D1C060F0D2C061F0D3C062F0D4C063F0D5
:100F8C00CBC064F0CCC065F0CDC066F0CEC067F0CD
:100F9C0017EC0DF060C0C7F061C0C8F062C0C9F0BA
:100FAC0063C0CAF0C7C08DF0C8C08EF0C9C08FF046
:100FBC00CAC090F0000E0001786F000E796F200E01
:100FCC007A6F410E7B6FB9C074F0BAC075F0BBC0BC
:100FDC0076F0BCC077F0D8EC11F074C091F075C00D
:100FEC0092F076C093F077C094F06FEC1BF0000198
:100FFC00D8A003EF08F005EF08F02DEF08F0D54B63
:10100C00D62BB9C074F0BAC075F0BBC076F0BCC0BA
:10101C0077F0000E786F000E796F200E7A6F410E0C
:10102C007B6FD8EC11F074C0B9F075C0BAF076C013
:10103C00BBF077C0BCF0660E0001C519D8A429EF2F
:10104C0008F02BEF08F02DEF08F0B74BB82BB9C018
:10105C00D9F0BAC0DAF0BBC0DBF0BCC0DCF0650E76
:10106C00C519D8B43CEF08F03EEF08F044EF08F097
:10107C00D5C0B5F0D6C0B6F048EF08F0000EB66F8C
:10108C00000EB56F000EB46F000EB36F000EB26F92
:10109C00000EB16F000ED06F000ECF6F45EF09F050
:1010AC00C7C060F0C8C061F0C9C062F0CAC063F0CC
:1010BC00D9C064F0DAC065F0DBC066F0DCC067F064
:1010CC00EEEC13F060C079F061C07AF062C07BF096
:1010DC0063C07CF0BCEC15F079C0CBF07AC0CCF0DE
:1010EC007BC0CDF07CC0CEF0CBC060F0CCC061F04A
:1010FC00CDC062F0CEC063F0EBEC1AF060C0BDF076
:10110C0061C0BEF02FB88DEF08F08FEF08F0ADEF97
:10111C0008F00001BD51BE11D8A497EF08F099EF6B
:10112C0008F0ADEF08F0670EC619D8A4A0EF08F0D0
:10113C00A2EF08F0ADEF08F0B6BFA9EF08F0A7EFEB
:10114C0008F0ADEF08F0B14BB22BF8EF08F000014E
:10115C00B351B411D8A4B5EF08F0B7EF08F0E1EF34
:10116C0008F0B6BFBEEF08F0BCEF08F0E1EF08F0F6
:10117C00000ED725D96E010ED821DA6E2E0EDF6E39
:10118C00D74BD82BC307D8A0C407000EB46F010EE1
:10119C00B36FE1EF08F0000ED725D96E010ED82100
:1011AC00DA6E300EDF6ED74BD82BC307D8A0C4072E
:1011BC00B107D8A0B207B151B211D8A4E8EF08F02A
:1011CC00EAEF08F0D1EF08F0000ED725D96E010E2A
:1011DC00D821DA6EBD51300FDF6ED74BD82BC30739
:1011EC00D8A0C407C7C08DF0C8C08EF0C9C08FF09E
:1011FC00CAC090F0D9C078F0DAC079F0DBC07AF0D0
:10120C00DCC07BF0CBC074F0CCC075F0CDC076F0F8
:10121C00CEC077F0D8EC11F074C091F075C092F09C
:10122C0076C093F077C094F013EC22F08DC0C7F029
:10123C008EC0C8F08FC0C9F090C0CAF0D9C060F0A1
:10124C00DAC061F0DBC062F0DCC063F0000E0001BC
:10125C00646F000E656F200E666F410E676FEEECCB
:10126C0013F060C0D9F061C0DAF062C0DBF063C08B
:10127C00DCF00001B507D8A0B607CF4BD02BB75187
:10128C00CF5DD051800AA06FB851800AA059D8B058
:10129C0052EF09F054EF09F062EF09F0D8BF60EF9C
:1012AC0009F0D85109E14B0ED75DD8A060EF09F0D9
:1012BC0062EF09F056EF08F0B351B411D8A469EFFE
:1012CC0009F06BEF09F07CEF09F02FA870EF09F033
:1012DC0072EF09F07CEF09F0000ED725D96E010EE4
:1012EC00D821DA6E2E0EDF6ED74BD82B000ED725F9
:1012FC00D96E010ED821DA6E000EDF6E650EC5199F
:10130C00D8A48BEF09F08DEF09F0E1EF04F0000E9B
:10131C00D06F4F0ECF6F000ECF25D96E010ED0219E
:10132C00DA6E000EDF6E000EC06F000EBF6FD6BF00
:10133C00A4EF09F0A2EF09F0ACEF09F0000EC06FBA
:10134C00010EBF6FD56DD61FD8B0D62B000EC26F55
:10135C00020EC16FDEEF09F0CF07D8A0D007000E48
:10136C00CF25D96E010ED021DA6ED5C060F0D6C073
:10137C0061F0000E636F0A0E626F0CEC1FF000013F
:10138C006051300FDF6ED5C060F0D6C061F0000E3A
:10139C00636F0A0E626FA9EC1EF060C0D5F061C0DD
:1013AC00D6F00001C107D8A0C207C307D8A0C40754
:1013BC00D551D611D8A4E5EF09F0E7EF09F0B2EF5B
:1013CC0009F0C2BFF4EF09F0C25106E1C105D8B073
:1013DC00F2EF09F0F4EF09F0B2EF09F0CF07D8A063
:1013EC00D007BF51C011D8A4FEEF09F000EF0AF0EE
:1013FC0006EF0AF0000EAC6F2B0EAB6F0AEF0AF083
:10140C00000EAC6F2D0EAB6F000ECF25D96E010EFA
:10141C00D021DA6EABC0DFFFC307D8A0C407CF075B
:10142C00D8A0D007BF0EA06FFF0EA16F9F51A26F67
:10143C00A36BA051A227A151A323A3510AE11A0E19
:10144C00A25DD8A02CEF0AF02FEF0AF0010E30EFBE
:10145C000AF0000EAF6FB06BAF51B011D8A439EFDA
:10146C000AF03BEF0AF041EF0AF0000EAE6F650E8A
:10147C00AD6F45EF0AF0000EAE6F450EAD6F000E6E
:10148C00CF25D96E010ED021DA6EADC0DFFFC307B8
:10149C00D8A0C407000ED725606F010ED821616F4C
:1014AC00000ECF25626F010ED021636FF4EC20F09B
:1014BC00E1EF04F01200DFC0D9FFE0C0DAFFDECFAD
:1014CC00F6FFDDCFF7FF0800F550250AD8A471EF21
:1014DC000AF073EF0AF0FAEF0CF0DFC0D9FFE0C0AE
:1014EC00DAFFDE2A000EDD22000E0001FA6F000E7C
:1014FC00F96FF9C02FF0FAC030F0FB69FC69DFC05E
:10150C00D9FFE0C0DAFFDECFF6FFDDCFF7FF080032
:10151C00F5502A0AD8A495EF0AF097EF0AF0C0EF1D
:10152C000AF0DFC0D9FFE0C0DAFFDE2A000EDD22B0
:10153C00E1C0D9FFE2C0DAFFDFCFE3F0020EDE2616
:10154C00DFCFE4F0000EDD22E3C0D9FFE4C0DAFF08
:10155C00DECFF9F0DDCFFAF0FABFB9EF0AF0B7EF52
:10156C000AF004EF0BF02F80F96DFA1FD8B0FA2BAC
:10157C0004EF0BF0DFC0D9FFE0C0DAFFDECF67F07D
:10158C00DDCF68F072EC19F067C0F9F068C0FAF0C2
:10159C00D7EF0AF0DFC0D9FFE0C0DAFFDE2A000E79
:1015AC00DD22D00E0001E36FFF0EE46FDFC0D9FF28
:1015BC00E0C0DAFFDECFF6FFDDCFF7FF0800F55015
:1015CC00E56FE66BE351E527E451E623E6510AE1CA
:1015DC000A0EE55DD8A0F5EF0AF0F8EF0AF0010E5F
:1015EC00F9EF0AF0000EE76FE86BE751E811D8A4A9
:1015FC0002EF0BF004EF0BF0D0EF0AF0DFC0D9FFD5
:10160C00E0C0DAFFDECFF6FFDDCFF7FF0800F550C4
:10161C002E0AD8A414EF0BF016EF0BF094EF0BF08E
:10162C00000EFC6F000EFB6FDFC0D9FFE0C0DAFFCD
:10163C00DE2A000EDD22DFC0D9FFE0C0DAFFDECFEC
:10164C00F6FFDDCFF7FF0800F5502A0AD8A431EFDA
:10165C000BF033EF0BF050EF0BF0DFC0D9FFE0C015
:10166C00DAFFDE2A000EDD22E1C0D9FFE2C0DAFF8C
:10167C00DFCFE3F0020EDE26DFCFE4F0000EDD223A
:10168C00E3C0D9FFE4C0DAFFDECFFBF0DDCFFCF026
:10169C0094EF0BF0DFC0D9FFE0C0DAFFDECF67F0CC
:1016AC00DDCF68F072EC19F067C0FBF068C0FCF09D
:1016BC0067EF0BF0DFC0D9FFE0C0DAFFDE2A000EC7
:1016CC00DD22D00E0001E36FFF0EE46FDFC0D9FF07
:1016DC00E0C0DAFFDECFF6FFDDCFF7FF0800F550F4
:1016EC00E56FE66BE351E527E451E623E6510AE1A9
:1016FC000A0EE55DD8A085EF0BF088EF0BF0010E1C
:10170C0089EF0BF0000EE96FEA6BE951EA11D8A4EE
:10171C0092EF0BF094EF0BF060EF0BF0DFC0D9FF02
:10172C00E0C0DAFFDECFF6FFDDCFF7FF0800F550A3
:10173C00666F676BC3EC20F000016651F16FF151DD
:10174C00D8B4ABEF0BF0ADEF0BF0E7EF0BF0DFC065
:10175C00D9FFE0C0DAFFDECFE3F0DDCFE4F0010E1D
:10176C00E327000EE423E3C0F6FFE4C0F7FF080014
:10177C00F550666F676BC3EC20F000016651F26F99
:10178C00F251D8B4CCEF0BF0CEEF0BF0E7EF0BF03F
:10179C00DFC0D9FFE0C0DAFFDECFE3F0DDCFE4F04D
:1017AC00020EE327000EE423E3C0F6FFE4C0F7FFCC
:1017BC000800F550666F676BC3EC20F000016651B2
:1017CC00F36F660EF119D8A4EEEF0BF0F0EF0BF0FF
:1017DC0030EF0CF0DFC0D9FFE0C0DAFFDECFF6FF50
:1017EC00DDCFF7FF0800F5CFF4F0DFC0D9FFE0C084
:1017FC00DAFFDE2A000EDD22E1C0D9FFE2C0DAFFFB
:10180C00DFCFE3F0040EDE26DFCFE4F0000EDD22A6
:10181C00E3C0D9FFE4C0DAFFDECFEDF0DECFEEF0AF
:10182C00DECFEFF0DECFF0F0DDC099F0DEC09AF045
:10183C00EDC09BF0EEC09CF0EFC09DF0F0C09EF0B0
:10184C00F4C09FF02EEC04F099C0DDF09AC0DEF0ED
:10185C0016EF0DF0F10E606F000E616F570E626F98
:10186C00080E636F000E656F020E646F73EC1DF053
:10187C00000160516111D8A446EF0CF048EF0CF058
:10188C00C3EF0CF0DFC0D9FFE0C0DAFFDECFE3F02E
:10189C00DDCFE4F0010EE327000EE423E3C0F6FFF6
:1018AC00E4C0F7FF0800F5CFF4F0BF0EE36FFF0EB6
:1018BC00E46FDFC0D9FFE0C0DAFFDECFF6FFDDCF8B
:1018CC00F7FF0800F550E56FE66BE351E527E451AF
:1018DC00E623E6510AE11A0EE55DD8A078EF0CF08C
:1018EC007BEF0CF0010E7CEF0CF0000EEB6FEC6B51
:1018FC00EB51EC11D8B485EF0CF087EF0CF0A1EFA5
:10190C000CF0E1C0D9FFE2C0DAFFDFCFE3F0040E48
:10191C00DE26DFCFE4F0000EDD22E3C0D9FFE4C009
:10192C00DAFFDECFEDF0DECFEEF0DECFEFF0DECF84
:10193C00F0F0B9EF0CF0E1C0D9FFE2C0DAFFDFCF75
:10194C00E3F0040EDE26DFCFE4F0000EDD22E3C070
:10195C00D9FFE4C0DAFFDECFEDF0DECFEEF0DECF64
:10196C00EFF0DECFF0F0020EDFC0D9FFE0C0DAFFFF
:10197C00DE26000EDD221AEF0CF0DFC0D9FFE0C02E
:10198C00DAFFDECFF6FFDDCFF7FF0800F550250AB2
:10199C00D8A4D3EF0CF0D5EF0CF0EDEF0CF0DFC0CA
:1019AC00D9FFE0C0DAFFDE2A000EDD22000E616FE7
:1019BC00250E606FDDC062F0DEC063F0DFEC1DF061
:1019CC00000E0001DE6F010EDD6F16EF0DF0DFC0B3
:1019DC00D9FFE0C0DAFFDE2A000EDD22000EDE6F3A
:1019EC00000EDD6F16EF0DF0DFC0D9FFE0C0DAFF9F
:1019FC00DECFF6FFDDCFF7FF0800F5500001606F7A
:101A0C00616BDDC062F0DEC063F0DFEC1DF0DFC0A7
:101A1C00D9FFE0C0DAFFDE2A000EDD22E6EF0CF083
:101A2C00120000016351800B6C6F635163256E6F64
:101A3C0062AF23EF0DF025EF0DF026EF0DF06E8168
:101A4C006E51D8B42CEF0DF02EEF0DF043EF0DF0DE
:101A5C006E29D8A434EF0DF036EF0DF03EEF0DF0FB
:101A6C00000E606F000E616F000E626F000E636FF0
:101A7C00628F000E636F4BEF0DF0000E606F000E67
:101A8C00616F000E626F000E636F6751800B6D6F9C
:101A9C006C516D19D8B455EF0DF057EF0DF058EFA0
:101AAC000DF06C8D675167256D6F66AF60EF0DF0B3
:101ABC0062EF0DF063EF0DF06D816D51D8B469EFED
:101ACC000DF06BEF0DF080EF0DF06D29D8A471EFD8
:101ADC000DF073EF0DF07BEF0DF0000E646F000E48
:101AEC00656F000E666F000E676F668F000E676F76
:101AFC0088EF0DF0000E646F000E656F000E666FC0
:101B0C00000E676F6E516D5DD8B08FEF0DF091EFD9
:101B1C000DF0B8EF0DF06CAD96EF0DF098EF0DF0F9
:101B2C009AEF0DF0800E6C1B6EC06FF06DC06EF0F6
:101B3C006FC06DF060C06FF064C060F06FC064F097
:101B4C0061C06FF065C061F06FC065F062C06FF08E
:101B5C0066C062F06FC066F063C06FF067C063F080
:101B6C006FC067F0000E6F6F6E516DC068F0696BDF
:101B7C00685F000E695B69BFCDEF0DF0695109E13B
:101B8C001A0E685DD8A0CDEF0DF0CFEF0DF006EF7B
:101B9C000EF06051611162116311D8A4D8EF0DF0F1
:101BAC00DBEF0DF0010EDCEF0DF0000E6F6F000E91
:101BBC00606F000E616F000E626F000E636F6DC080
:101BCC006EF00FEF0EF06FA1EEEF0DF0F0EF0DF0E9
:101BDC00F6EF0DF0D8906F3101096F6FF8EF0DF043
:101BEC00D8906F3360A1FDEF0DF0FFEF0DF000EF1B
:101BFC000EF06F8F633563336233613360336E2B5A
:101C0C006D516E5DD8A00DEF0EF00FEF0EF0E9EFF9
:101C1C000DF06CBD14EF0EF016EF0EF056EF0EF04B
:101C2C006E51D8A41CEF0EF01EEF0EF028EF0EF044
:101C3C00000E606F000E616F000E626F000E636F1E
:101C4C0077EF0FF064516027655161236651622371
:101C5C006751632363A135EF0EF037EF0EF0E3EF1E
:101C6C000EF06FA13CEF0EF03EEF0EF044EF0EF0D5
:101C7C00D8906F3101096F6F46EF0EF0D8906F332B
:101C8C0060A14BEF0EF04DEF0EF04EEF0EF06F8F9C
:101C9C00633563336233613360336E2BE3EF0EF0E5
:101CAC006451605D65516159665162596351800A96
:101CBC00686F6751800A6859D8B067EF0EF069EF0A
:101CCC000EF094EF0EF06051645D686F61516559D0
:101CDC00696F625166596A6F635167596B6FFF0E7A
:101CEC006825606FFF0E6921616FFF0E6A21626FBC
:101CFC00FF0E6B21636F800E6C1B6F6D6F51D8A440
:101D0C008AEF0EF08CEF0EF09CEF0EF0010E6027B8
:101D1C00000E6123622363239CEF0EF06451605F1D
:101D2C006551615B6651625B6751635B6051611128
:101D3C0062116311D8A4A5EF0EF0A7EF0EF0DCEF43
:101D4C000EF06F51D8A4ADEF0EF0AFEF0EF0DCEF4C
:101D5C000EF0000E606F000E616F000E626F000ED1
:101D6C00636F77EF0FF0D890603761376237633766
:101D7C006FAFC3EF0EF0C5EF0EF0C6EF0EF0608143
:101D8C006FA1CBEF0EF0CDEF0EF0D1EF0EF0D880AF
:101D9C006F37D3EF0EF0D8906F376E51D8B4D9EFB0
:101DAC000EF0DBEF0EF0DCEF0EF06E0762AFE1EF42
:101DBC000EF0E3EF0EF0B9EF0EF0000E6D6F6FAF9B
:101DCC00EAEF0EF0ECEF0EF004EF0FF06FC068F0DE
:101DDC007F0E6817D8B4F5EF0EF0F7EF0EF0FBEFAF
:101DEC000EF0010E6D6F04EF0FF060A100EF0FF01D
:101DFC0002EF0FF004EF0FF0F7EF0EF06D51D8B4C7
:101E0C000AEF0FF00CEF0FF037EF0FF0010E602719
:101E1C00000E61236223632363A117EF0FF019EF08
:101E2C000FF037EF0FF060C068F061C069F062C06E
:101E3C006AF063C06BF06B356B336A3369336833AC
:101E4C0068C060F069C061F06AC062F06BC063F09A
:101E5C006E29D8B434EF0FF036EF0FF037EF0FF0E8
:101E6C006E2B6E29D8B43DEF0FF03FEF0FF047EF1C
:101E7C000FF06E51D8A445EF0FF047EF0FF059EF6C
:101E8C000FF0000E606F000E616F000E626F000E9F
:101E9C00636F6E51D8A455EF0FF057EF0FF059EF59
:101EAC000FF0000E6C6F6EA15EEF0FF060EF0FF095
:101EBC0063EF0FF0628F64EF0FF0629FD8906E317A
:101ECC00636F6CAF6CEF0FF06EEF0FF06FEF0FF006
:101EDC00638F60C060F061C061F062C062F063C08B
:101EEC0063F012000450800B0D6E045004240F6E2E
:101EFC0003AE83EF0FF085EF0FF086EF0FF00F803E
:101F0C000F50D8B48CEF0FF08EEF0FF0A3EF0FF053
:101F1C000F28D8A494EF0FF096EF0FF09EEF0FF070
:101F2C00000E016E000E026E000E036E000E046EAB
:101F3C00038E000E046EABEF0FF0000E016E000E60
:101F4C00026E000E036E000E046E0850800B0E6EB7
:101F5C000D500E18D8B4B5EF0FF0B7EF0FF0B8EF77
:101F6C000FF00D8C085008240E6E07AEC0EF0FF06A
:101F7C00C2EF0FF0C3EF0FF00E800E50D8B4C9EFC4
:101F8C000FF0CBEF0FF0E0EF0FF00E28D8A4D1EF4D
:101F9C000FF0D3EF0FF0DBEF0FF0000E056E000E1D
:101FAC00066E000E076E000E086E078E000E086E91
:101FBC00E8EF0FF0000E056E000E066E000E076EB9
:101FCC00000E086E0F500E5CD8B0EFEF0FF0F1EF73
:101FDC000FF018EF10F00DACF6EF0FF0F8EF0FF06C
:101FEC00FAEF0FF0800E0D1A0FC010F00EC00FF0AC
:101FFC0010C00EF001C010F005C001F010C005F0CB
:10200C0002C010F006C002F010C006F003C010F0C1
:10201C0007C003F010C007F004C010F008C004F0B3
:10202C0010C008F0000E106E0F500EC009F00A6AB6
:10203C00095E000E0A5A0ABE2DEF10F00A5009E193
:10204C001A0E095CD8A02DEF10F02FEF10F066EFF0
:10205C0010F00150021003100410D8A438EF10F047
:10206C003BEF10F0010E3CEF10F0000E106E000E66
:10207C00016E000E026E000E036E000E046E0EC09A
:10208C000FF06FEF10F010A04EEF10F050EF10F0BB
:10209C0056EF10F0D89010300109106E58EF10F078
:1020AC00D890103201A05DEF10F05FEF10F060EFF0
:1020BC0010F0108E043404320332023201320F2A33
:1020CC000E500F5CD8A06DEF10F06FEF10F049EFD1
:1020DC0010F00DBC74EF10F076EF10F0B6EF10F0BE
:1020EC000F50D8A47CEF10F07EEF10F088EF10F0BA
:1020FC00000E016E000E026E000E036E000E046EDA
:10210C00D7EF11F00550012606500222075003228A
:10211C000850042204A095EF10F097EF10F043EF55
:10212C0011F010A09CEF10F09EEF10F0A4EF10F047
:10213C00D89010300109106EA6EF10F0D890103224
:10214C0001A0ABEF10F0ADEF10F0AEEF10F0108E71
:10215C00043404320332023201320F2A43EF11F0FD
:10216C000550015C06500258075003580450800A71
:10217C00096E0850800A0958D8B0C7EF10F0C9EFA3
:10218C0010F0F4EF10F00150055C096E0250065887
:10219C000A6E035007580B6E045008580C6EFF0E55
:1021AC000924016EFF0E0A20026EFF0E0B20036E37
:1021BC00FF0E0C20046E800E0D1A106C1050D8A45B
:1021CC00EAEF10F0ECEF10F0FCEF10F0010E01262E
:1021DC00000E022203220422FCEF10F00550015ED7
:1021EC000650025A0750035A0850045A0150021064
:1021FC0003100410D8A405EF11F007EF11F03CEF19
:10220C0011F01050D8A40DEF11F00FEF11F03CEFBE
:10221C0011F0000E016E000E026E000E036E000E29
:10222C00046ED7EF11F0D89001360236033604361F
:10223C0010AE23EF11F025EF11F026EF11F0018015
:10224C0010A02BEF11F02DEF11F031EF11F0D88021
:10225C00103633EF11F0D89010360F50D8B439EF48
:10226C0011F03BEF11F03CEF11F00F0603AE41EF14
:10227C0011F043EF11F019EF11F0000E0E6E10AECD
:10228C004AEF11F04CEF11F064EF11F010C009F0AF
:10229C007F0E0916D8B455EF11F057EF11F05BEF24
:1022AC0011F0010E0E6E64EF11F001A060EF11F051
:1022BC0062EF11F064EF11F057EF11F00E50D8B43B
:1022CC006AEF11F06CEF11F097EF11F0010E01268F
:1022DC00000E02220322042204A077EF11F079EF02
:1022EC0011F097EF11F001C009F002C00AF003C021
:1022FC000BF004C00CF00C340C320B320A320932E5
:10230C0009C001F00AC002F00BC003F00CC004F0CD
:10231C000F28D8B494EF11F096EF11F097EF11F05D
:10232C000F2A0F28D8B49DEF11F09FEF11F0A7EFF3
:10233C0011F00F50D8A4A5EF11F0A7EF11F0B9EFE1
:10234C0011F0000E016E000E026E000E036E000EF8
:10235C00046E0F50D8A4B5EF11F0B7EF11F0B9EF30
:10236C0011F0000E0D6E0FA0BEEF11F0C0EF11F0CA
:10237C00C3EF11F0038EC4EF11F0039ED8900F3011
:10238C00046E0DAECCEF11F0CEEF11F0CFEF11F0DB
:10239C00048E01C001F002C002F003C003F004C0BF
:1023AC0004F0120000017751800B806F7751772574
:1023BC00866F76AFE4EF11F0E6EF11F0E7EF11F076
:1023CC0086818651D8B4EDEF11F0EFEF11F002EFEA
:1023DC0012F08629D8A4F5EF11F0F7EF11F0FFEF0A
:1023EC0011F0000E746F000E756F000E766F000EFC
:1023FC00776F768F0AEF12F0000E746F000E756F08
:10240C00000E766F000E776F7B51800B801B7B511B
:10241C007B25816F7AAF15EF12F017EF12F018EFE2
:10242C0012F081818151D8B41EEF12F020EF12F01E
:10243C0033EF12F08129D8A426EF12F028EF12F016
:10244C0030EF12F0000E786F000E796F000E7A6F7D
:10245C00000E7B6F7A8F3BEF12F0000E786F000E40
:10246C00796F000E7A6F000E7B6F8151D8B441EFFB
:10247C0012F043EF12F04BEF12F08651D8A449EF53
:10248C0012F04BEF12F055EF12F0000E746F000EBD
:10249C00756F000E766F000E776FEDEF13F07A51BB
:1024AC007403F3CF8BF0F4CF8CF08B51826F836B72
:1024BC00846B856B8C51876F886B896B8A6B7951B8
:1024CC007503F3CF8BF0F4CF8CF08B518227000E79
:1024DC008323842385238C518727000E882389230B
:1024EC008A2378517603F3CF8BF0F4CF8CF08B5199
:1024FC008227000E8323842385238C518727000E8B
:10250C00882389238A2384C085F083C084F082C009
:10251C0083F0826B78517503F3CF8BF0F4CF8CF092
:10252C008B5182278C518323000E8423000E85232C
:10253C0079517403F3CF8BF0F4CF8CF08B5182274D
:10254C008C518323000E8423000E852384C085F0D8
:10255C0083C084F082C083F0826B78517403F3CF14
:10256C008BF0F4CF8CF08B5182278C518323000E8F
:10257C008423000E85237A517503F3CF8BF0F4CFAF
:10258C008CF08B5187278C518823000E8923000EE9
:10259C008A2379517603F3CF8BF0F4CF8CF08B51E7
:1025AC0087278C518823000E8923000E8A237A51A9
:1025BC007603F3CF8BF0F4CF8CF08B517C6F8C5176
:1025CC007D6F7E6B7F6B7EC07FF07DC07EF07CC0AC
:1025DC007DF07C6B7C5187277D5188237E5189232C
:1025EC007F518A2382C07CF083C07DF084C07EF052
:1025FC0085C07FF0190E08EF13F0D8907F337E332F
:10260C007D337C33E82E03EF13F07C5187277D510B
:10261C0088237E5189237F518A2384C085F083C00F
:10262C0084F082C083F0826B815186C07CF07D6B1C
:10263C007C27000E7D23820E7C258B6FFF0E7D2167
:10264C008C6F3EEF13F0D8908737883789378A37ED
:10265C0085AF33EF13F035EF13F036EF13F08781BE
:10266C00D89082378337843785378B07D8A08C076F
:10267C0089AF43EF13F045EF13F029EF13F0000E81
:10268C00816F85AF4CEF13F04EEF13F072EF13F038
:10269C00FF0E82157C6FFF0E83157D6FFF0E841568
:1026AC007E6F7F0E85157F6F7C517D117E117F11A2
:1026BC00D8B463EF13F065EF13F069EF13F0010E6C
:1026CC00816F72EF13F087A16EEF13F070EF13F0C0
:1026DC0072EF13F065EF13F08151D8B478EF13F06B
:1026EC007AEF13F09EEF13F0010E8727000E88236C
:1026FC0089238A238AA185EF13F087EF13F09EEFCD
:10270C0013F087C07CF088C07DF089C07EF08AC051
:10271C007FF07F357F337E337D337C337CC087F015
:10272C007DC088F07EC089F07FC08AF08B4B8C2BEB
:10273C008CBFA9EF13F08C5108E18B29D8A0A9EF1D
:10274C0013F0ABEF13F0B5EF13F0000E876F000E24
:10275C00886F800E896F7F0E8A6FE3EF13F08CBF4A
:10276C00C2EF13F08C5106E18B05D8B0C0EF13F01B
:10277C00C2EF13F0CEEF13F0000E876F000E886FD0
:10278C00000E896F000E8A6F000E806FE3EF13F05E
:10279C008BC086F0FF0E8717FF0E88177F0E8917E8
:1027AC00000E8A1786A1DDEF13F0DFEF13F0E0EFD8
:1027BC0013F0898FD89086318A6F80518A1387C025
:1027CC0074F088C075F089C076F08AC077F012007A
:1027DC0000016351800B706F63516325776F62AF9B
:1027EC00FAEF13F0FCEF13F0FDEF13F07781775154
:1027FC00D8B403EF14F005EF14F01AEF14F07729A6
:10280C00D8A40BEF14F00DEF14F015EF14F0000E2C
:10281C00606F000E616F000E626F000E636F628F4F
:10282C00000E636F22EF14F0000E606F000E616FEC
:10283C00000E626F000E636F6751800B701B675147
:10284C006725786F66AF2DEF14F02FEF14F030EF93
:10285C0014F078817851D8B436EF14F038EF14F0C6
:10286C004DEF14F07829D8A43EEF14F040EF14F09B
:10287C0048EF14F0000E646F000E656F000E666F6B
:10288C00000E676F668F000E676F55EF14F0000E29
:10289C00646F000E656F000E666F000E676F6451FB
:1028AC00651166116711D8A45EEF14F060EF14F097
:1028BC0078EF14F0000E606F000E616F000E626F07
:1028CC00000E636F800E62137F0E631370516313DF
:1028DC0060C060F061C061F062C062F063C063F020
:1028EC00BBEF15F07751D8A47EEF14F080EF14F005
:1028FC008AEF14F0000E606F000E616F000E626FB5
:10290C00000E636FBBEF15F0785177C068F0696B00
:10291C00685F000E695B7F0E6825716F000E692180
:10292C00726F60C06CF061C06DF062C06EF063C01D
:10293C006FF0000E606F000E616F000E626F000E84
:10294C00636F000E736F000E746F000E756F000EC8
:10295C00766F000E786FEBEF14F07851D8B4B9EFB6
:10296C0014F0BBEF14F0D2EF14F0D8906C376D3735
:10297C006E376F37D890603761376237633776AF11
:10298C00CAEF14F0CCEF14F0CDEF14F06081D890B6
:10299C00733774377537763764516C5D65516D5983
:1029AC0066516E5967516F59D8A0DFEF14F0E1EF03
:1029BC0014F0EAEF14F0768D64516C5F65516D5B29
:1029CC0066516E5B67516F5B782B190E7865F1EF72
:1029DC0014F0F3EF14F0B3EF14F06C516D116E11A1
:1029EC006F11D8B4FCEF14F0FEEF14F016EF15F0E5
:1029FC00738116EF15F0D890603761376237633703
:102A0C0076AF0BEF15F00DEF15F00EEF15F06081B2
:102A1C00D89073377437753776377107D8A072072B
:102A2C0062AF1BEF15F01DEF15F001EF15F0000E66
:102A3C00786F76AF24EF15F026EF15F04AEF15F00E
:102A4C00FF0E7315686FFF0E7415696FFF0E751509
:102A5C006A6F7F0E76156B6F685169116A116B1175
:102A6C00D8B43BEF15F03DEF15F041EF15F0010E2A
:102A7C00786F4AEF15F060A146EF15F048EF15F0AE
:102A8C004AEF15F03DEF15F07851D8B450EF15F032
:102A9C0052EF15F076EF15F0010E6027000E612352
:102AAC006223632363A15DEF15F05FEF15F076EF02
:102ABC0015F060C068F061C069F062C06AF063C074
:102ACC006BF06B356B336A336933683368C060F015
:102ADC0069C061F06AC062F06BC063F0714B722B1D
:102AEC0072BF81EF15F0725108E17129D8A081EF06
:102AFC0015F083EF15F08EEF15F0000E726F716903
:102B0C00000E606F000E616F000E626F000E636F3F
:102B1C0072BF9BEF15F0725106E17105D8B099EFB9
:102B2C0015F09BEF15F0A9EF15F0000E726F000E6B
:102B3C00716F000E606F000E616F000E626F000E01
:102B4C00636F000E706F71C077F077A1B0EF15F066
:102B5C00B2EF15F0B5EF15F0628FB6EF15F0629F7E
:102B6C00D8907731636F6CEF14F0120023C089F0AA
:102B7C0024C08AF025C08BF026C08CF079C089F077
:102B8C007AC08AF07BC08BF07CC08CF0810E000187
:102B9C007D6FFF0E7E6F89C07FF08AC080F08BC086
:102BAC0081F08CC082F0180EE1EF15F0D8908233D2
:102BBC00813380337F33E82EDCEF15F07F517D2598
:102BCC00876F000E7E21886F88BFF6EF15F0885155
:102BDC0009E1170E875DD8A0F6EF15F0F8EF15F0A8
:102BEC0002EF16F079C079F07AC07AF07BC07BF0F6
:102BFC007CC07CF0C6EF16F088BF07EF16F009EF2B
:102C0C0016F07AEF16F087C07DF0FF0E7E6FFF0E88
:102C1C007F6F7F0E806F000E816F7D6718EF16F04F
:102C2C0020EF16F08135813380337F337E337D2F57
:102C3C0013EF16F07EC083F07FC084F080C085F067
:102C4C0081C086F00001835189157D6F84518A15EE
:102C5C007E6F85518B157F6F86518C15806F7D51E2
:102C6C007E117F118011D8A43EEF16F040EF16F0C4
:102C7C0042EF16F0F8EF15F089C07DF08AC07EF0B7
:102C8C008BC07FF08CC080F0200E52EF16F0D890E5
:102C9C0080337F337E337D33E82E4DEF16F07D513C
:102CAC007E117F118011D8B45EEF16F060EF16F034
:102CBC0068EF16F08351892784518A2385518B2321
:102CCC0086518C23831D7D6F841D7E6F851D7F6FC8
:102CDC00861D806F7D5189177E518A177F518B1706
:102CEC0080518C17BEEF16F089C07DF08AC07EF043
:102CFC008BC07FF08CC080F0200E8AEF16F0D8903D
:102D0C0080337F337E337D33E82E85EF16F07D5193
:102D1C007E117F118011D8A496EF16F098EF16F063
:102D2C00A2EF16F0000E896F000E8A6F000E8B6FEB
:102D3C00000E8C6FBEEF16F0D89089357D6F8A35FA
:102D4C007E6F8B357F6F8C35806F7D517E117F113F
:102D5C008011D8B4B4EF16F0B6EF16F0BEEF16F043
:102D6C00000E896F000E8A6F800E8B6FBF0E8C6FFA
:102D7C0089C079F08AC07AF08BC07BF08CC07CF073
:102D8C001200000E396E000E3A6E400E3B6E420E73
:102D9C003C6E8098F28EF28AC70ED56E050ED66EFA
:102DAC00000E956E000E966E000E946E240E826EC2
:102DBC000F0EC16E8EEC22F0000ECC6EFA0ECB6EA6
:102DCC000C0EBD6EF00EBE6E9E929494040ECA6EE6
:102DDC00F086F090F18A000E0001616F3C0E606F7E
:102DEC00B7EC22F0000E0001616F0C0E606FB7ECB7
:102DFC0022F0EFEC22F00C0EC16EC282C2B209EFCF
:102E0C0017F00BEF17F004EF17F0C45001016F6FC0
:102E1C006E6BC3506E250001FD6F000E01016F211A
:102E2C000001FE6FFDC060F0FEC061F0000E636F2C
:102E3C00050E626FA3EC22F0000160C066F061C069
:102E4C0067F0000E67BFFF0E686F696F010EBCEC78
:102E5C0017F066C074F067C075F068C076F069C092
:102E6C0077F06F0E0001786F120E796F830E7A6F08
:102E7C003A0E7B6FD8EC11F074C035F075C036F09B
:102E8C0076C037F077C038F035C074F036C075F0C6
:102E9C0037C076F038C077F0000E0001786F000E66
:102EAC00796FC80E7A6F420E7B6FD8EC11F074C03C
:102EBC0039F075C03AF076C03BF077C03CF039C0C1
:102ECC0060F03AC061F03BC062F03CC063F0EBECE8
:102EDC001AF060C033F061C034F0060E01016F6F60
:102EEC00130E6E6FAD0EE82EFED76E2FFCD76F2F24
:102EFC00FAD700D0000E956E000E0001616F800EA7
:102F0C00606FB7EC22F0350E0001646F080E656F30
:102F1C0012EC20F0000E0001616FC00E606FB7EC78
:102F2C0022F0500E01015E6F010E5F6F410E606F5B
:102F3C00080E616F39C062F13AC063F13BC064F1B5
:102F4C003CC065F176EC21F0500E0001646F010E6F
:102F5C00656F12EC20F0010E0001646F080E656FB6
:102F6C0012EC20F001EF17F007EF00F000016E6F8C
:102F7C0000016E51D8B4C5EF17F0C7EF17F0E9EFA9
:102F8C0017F069BFCEEF17F0CCEF17F0E9EF17F0A1
:102F9C0066C06AF067C06BF068C06CF069C06DF019
:102FAC006A1F6B1F6C1F6D1F6A2B000E6B236C232B
:102FBC006D236AC070F06BC071F06CC072F06DC0A4
:102FCC0073F0F1EF17F066C070F067C071F068C075
:102FDC0072F069C073F06651671168116911D8A459
:102FEC00FAEF17F0FCEF17F006EF18F0000E666F13
:102FFC00000E676F000E686F000E696F97EF18F088
:10300C00960E6F6F10EF18F06F2BD89073337233DE
:10301C0071337033000E70156A6F000E71156B6F83
:10302C00000E72156C6FFE0E73156D6F6A516B117D
:10303C006C116D11D8A425EF18F027EF18F00AEFDA
:10304C0018F035EF18F06F2B010E7027000E71235E
:10305C0072237323D8907333723371337033000E31
:10306C0070156A6F000E71156B6F000E72156C6F18
:10307C00FF0E73156D6F6A516B116C116D11D8A425
:10308C004AEF18F04CEF18F029EF18F054EF18F045
:10309C006F07D890703771377237733772BF59EF2B
:1030AC0018F05BEF18F063EF18F0020E6F6161EF30
:1030BC0018F063EF18F04EEF18F06FB168EF18F0DE
:1030CC006AEF18F06BEF18F0729FD8906F336FC0E7
:1030DC006AF06B6B6C6B6D6B6AC06DF06C6B6B6BD1
:1030EC006A6B6A5170136B5171136C5172136D5181
:1030FC0073136E51D8B485EF18F087EF18F08FEF7B
:10310C0018F069BF8EEF18F08CEF18F08FEF18F0F5
:10311C00738F70C066F071C067F072C068F073C0D6
:10312C0069F01200096E0950D8B49FEF18F0A1EFA6
:10313C0018F0C3EF18F004BEA8EF18F0A6EF18F0C3
:10314C00C3EF18F001C005F002C006F003C007F091
:10315C0004C008F0051E061E071E081E052A000ED8
:10316C0006220722082205C00BF006C00CF007C08F
:10317C000DF008C00EF0CBEF18F001C00BF002C040
:10318C000CF003C00DF004C00EF00150021003103F
:10319C000410D8A4D4EF18F0D6EF18F0E0EF18F024
:1031AC00000E016E000E026E000E036E000E046E19
:1031BC0071EF19F0960E0A6EEAEF18F00A2AD89001
:1031CC000E320D320C320B32000E0B14056E000E4B
:1031DC000C14066E000E0D14076EFE0E0E14086E07
:1031EC000550061007100810D8A4FFEF18F001EFD7
:1031FC0019F0E4EF18F00FEF19F00A2A010E0B2664
:10320C00000E0C220D220E22D8900E320D320C32F2
:10321C000B32000E0B14056E000E0C14066E000E15
:10322C000D14076EFF0E0E14086E055006100710D5
:10323C000810D8A424EF19F026EF19F003EF19F0B9
:10324C002EEF19F00A06D8900B360C360D360E36CA
:10325C000DBE33EF19F035EF19F03DEF19F0020EFA
:10326C000A603BEF19F03DEF19F028EF19F00AB0A6
:10327C0042EF19F044EF19F045EF19F00D9ED8907C
:10328C000A320AC005F0066A076A086A05C008F027
:10329C00076A066A056A05500B1206500C12075095
:1032AC000D1208500E120950D8B45FEF19F061EFEF
:1032BC0019F069EF19F004BE68EF19F066EF19F018
:1032CC0069EF19F00E8E0BC001F00CC002F00DC0AE
:1032DC0003F00EC004F01200000E0001756F000E1A
:1032EC00746F000E6E6F000E6D6F7FEF19F0674BF1
:1032FC00682B010E736F67C0F6FF68C0F7FF0800FC
:10330C00F550200AD8B48DEF19F08FEF19F0ACEF0F
:10331C0019F0F70E696FFF0E6A6F67C0F6FF68C091
:10332C00F7FF0800F5506B6F6C6B69516B276A5196
:10333C006C236C5109E1050E6B5DD8A0A8EF19F058
:10334C00AAEF19F0ACEF19F0000E736F73C06FF0A9
:10335C00706B6F517011D8A4B6EF19F0B8EF19F06B
:10336C007DEF19F0C2EF19F0000E6E6F010E6D6F4C
:10337C00674B682BF8EF19F067C0F6FF68C0F7FFD2
:10338C000800F550696F6A6B6A51000AD8B4D1EF26
:10339C0019F0F8EF19F069512B0AD8B4BEEF19F0F7
:1033AC00060AD8B4BAEF19F0F8EF19F074C060F04F
:1033BC0075C061F0000E636F0A0E626FA3EC22F011
:1033CC0067C0F6FF68C0F7FF0800F5500001605FAA
:1033DC00000E615B300E6025746F000E6121756FFD
:1033EC00BEEF19F0D00E696FFF0E6A6F67C0F6FF63
:1033FC0068C0F7FF0800F5506B6F6C6B69516B2759
:10340C006A516C236C510AE10A0E6B5DD8A011EF66
:10341C001AF014EF1AF0010E15EF1AF0000E716F7E
:10342C00726B71517211D8A41EEF1AF020EF1AF0C2
:10343C00DCEF19F06D516E11D8A427EF1AF029EFBB
:10344C001AF037EF1AF074C069F075C06AF0691F92
:10345C006A1F694B6A2B69C067F06AC068F03BEF62
:10346C001AF074C067F075C068F012003FC001F02C
:10347C0040C002F0000E02BEFF0E036E046E010E81
:10348C0098EC18F001C00FF002C010F003C011F05E
:10349C0004C012F039C013F03AC014F03BC015F060
:1034AC003CC016F0F2EC1BF0D8B05FEF1AF061EFF5
:1034BC001AF093EF1AF0F7EC22F0060E1C6E130EB6
:1034CC001B6EAE0EE82EFED71B2EFCD71C2EFAD789
:1034DC00000E026E800E016ED5EC22F0290E056EE8
:1034EC00080E066E54EC20F0000E026EC00E016E3B
:1034FC00D5EC22F01D0E056E080E066E54EC20F075
:10350C00060E1C6E130E1B6EAE0EE82EFED71B2E77
:10351C00FCD71C2EFAD7F7EC22F039C00FF03AC0CA
:10352C0010F03BC011F03CC012F03DC001F03EC0A9
:10353C0002F0000E02BEFF0E036E046E010E98EC3C
:10354C0018F001C013F002C014F003C015F004C051
:10355C0016F0F2EC1BF0D8B0B6EF1AF0B8EF1AF088
:10356C00EAEF1AF0F7EC22F0060E1C6E130E1B6E2F
:10357C00AE0EE82EFED71B2EFCD71C2EFAD7000E53
:10358C00026E800E016ED5EC22F0100E056E080E48
:10359C00066E54EC20F0000E026EC00E016ED5ECDF
:1035AC0022F01D0E056E080E066E54EC20F0060E71
:1035BC001C6E130E1B6EAE0EE82EFED71B2EFCD708
:1035CC001C2EFAD7F7EC22F012000001623563359D
:1035DC00696F6951D8A4F5EF1AF0F7EF1AF001EF03
:1035EC001BF0000E606F000E616F000E626F000E1C
:1035FC00636F6EEF1BF060C064F061C065F062C079
:10360C0066F063C067F0200E11EF1BF0D8906733A3
:10361C00663365336433E82E0CEF1BF06451686F2E
:10362C00628FFF0E6017FF0E6117FF0E6217000E00
:10363C006317960E695F69BF28EF1BF026EF1BF02E
:10364C003EEF1BF06951800A970FD8B030EF1BF09A
:10365C0032EF1BF034EF1BF0F7EF1AF0D890633316
:10366C00623361336033693F34EF1BF056EF1BF06C
:10367C001F0E696544EF1BF046EF1BF04EEF1BF07D
:10368C00F7EF1AF0D8906037613762376337690704
:10369C006951D8A454EF1BF056EF1BF048EF1BF008
:1036AC006851D8B45CEF1BF05EEF1BF066EF1BF0BB
:1036BC00631F621F611F606D000E61236223632311
:1036CC0060C060F061C061F062C062F063C063F022
:1036DC001200000E00018D15956F000E8E15966F61
:1036EC00800E8F15976F7F0E9015986F95519611D0
:1036FC0097119811D8A485EF1BF087EF1BF08FEF73
:10370C001BF0000E8D6F000E8E6F000E8F6F000E73
:10371C00906F000E9115956F000E9215966F800E9E
:10372C009315976F7F0E9415986F9551961197116D
:10373C009811D8A4A4EF1BF0A6EF1BF0AEEF1BF072
:10374C00000E916F000E926F000E936F000E946F2F
:10375C0090AFB3EF1BF0B5EF1BF0BEEF1BF08D6D10
:10376C008E1FD8B08E2B8F1FD8B08F2B800E9057FA
:10377C0094AFC3EF1BF0C5EF1BF0CEEF1BF0916DB8
:10378C00921FD8B0922B931FD8B0932B800E9457C6
:10379C00000E8D1B000E8E1B000E8F1B800E901BBF
:1037AC00000E911B000E921B000E931B800E941B9F
:1037BC0091518D5D92518E5993518F5994519059CD
:1037CC00D8B0EBEF1BF0EDEF1BF0F0EF1BF0D89047
:1037DC00F1EF1BF0D8801200000E0F14176E000EC4
:1037EC001014186E800E1114196E7F0E12141A6EAE
:1037FC001750181019101A10D8A407EF1CF009EF65
:10380C001CF011EF1CF0000E0F6E000E106E000E6F
:10381C00116E000E126E000E1314176E000E14149F
:10382C00186E800E1514196E7F0E16141A6E175022
:10383C00181019101A10D8A426EF1CF028EF1CF041
:10384C0030EF1CF0000E136E000E146E000E156E91
:10385C00000E166E12AE35EF1CF037EF1CF040EF79
:10386C001CF00F6C101ED8B0102A111ED8B0112AE3
:10387C00800E125616AE45EF1CF047EF1CF050EFC1
:10388C001CF0136C141ED8B0142A151ED8B0152AAF
:10389C00800E1656000E0F1A000E101A000E111A7A
:1038AC00800E121A000E131A000E141A000E151A9E
:1038BC00800E161A13500F5C1450105815501158D6
:1038CC0016501258D8B06DEF1CF06FEF1CF072EF61
:1038DC001CF0D89073EF1CF0D880120027C06AF04F
:1038EC0028C06BF029C06CF02AC06DF060C06AF083
:1038FC0061C06BF062C06CF063C06DF06AC064F0C4
:10390C006BC065F06CC066F06DC067F0180E95EF7B
:10391C001CF00001D8906733663365336433E82EAE
:10392C008FEF1CF06451686F696B68516911D8A4F2
:10393C00A2EF1CF0A4EF1CF0C4EF1CF0D8906A3579
:10394C00646F6B35656F6C35666F6D35676F645181
:10395C00651166116711D8A4B6EF1CF0B8EF1CF016
:10396C00BEEF1CF0000E616F020E606FF3EF1CF0E7
:10397C00000E616F030E606FF3EF1CF06829691184
:10398C00D8A4CBEF1CF0CDEF1CF0EFEF1CF06AC00D
:10399C0064F06BC065F06CC066F06DC067F0090E2A
:1039AC00D8906437653766376737E82ED6EF1CF04A
:1039BC006451651166116711D8B4E7EF1CF0EAEF9A
:1039CC001CF0010EEBEF1CF0000E606F616BF3EF5F
:1039DC001CF0000E616F040E606F12000600E1CF48
:1039EC001DF0E2CF1EF0F6CF1FF0F7CF20F0F8CF8E
:1039FC0021F0F5CF22F0F0A006EF1DF008EF1DF03E
:103A0C003CEF1DF0F09039C00FF03AC010F03BC005
:103A1C0011F03CC012F0000E136E000E146EA00ECE
:103A2C00156E410E166EF2EC1BF0D8A020EF1DF0B7
:103A3C0022EF1DF03CEF1DF039C001F03AC002F04E
:103A4C003BC003F03CC004F0000E056E000E066E89
:103A5C00200E076EC10E086E78EC0FF001C039F025
:103A6C0002C03AF003C03BF004C03CF0F2AA41EFB4
:103A7C001DF043EF1DF065EF1DF0F2A448EF1DF0B3
:103A8C004AEF1DF065EF1DF0314A322A32BE58EF75
:103A9C001DF0325009E1080E315CD8A058EF1DF032
:103AAC005AEF1DF060EF1DF065EC1FF0000E326E4A
:103ABC00000E316E3CEC1AF0050ED66EF29422C05C
:103ACC00F5FF21C0F8FF20C0F7FF1FC0F6FF1EC096
:103ADC00E2FF1DC0E1FF4192110060C067F061C0C0
:103AEC0068F062C069F063C06AF000016407D8A096
:103AFC006507642906E16529D8A487EF1DF089EFD5
:103B0C001DF096EF1DF0000E616F000E606FDEEF82
:103B1C001DF0674B682B694B6A2B6407D8A06507AF
:103B2C0067C0D9FF68C0DAFFDF50D8B4A0EF1DF032
:103B3C00A2EF1DF0CDEF1DF069C0F6FF6AC0F7FFD4
:103B4C000800F5500009D8B4AEEF1DF0B0EF1DF031
:103B5C00CDEF1DF064516511D8B4B7EF1DF0B9EF7E
:103B6C001DF0CDEF1DF067C0D9FF68C0DAFFDF5044
:103B7C00666F69C0F6FF6AC0F7FF0800F55066195A
:103B8C00D8B4CBEF1DF0CDEF1DF08FEF1DF067C05B
:103B9C00D9FF68C0DAFFDF50666F69C0F6FF6AC0F4
:103BAC00F7FF0800F550665D606F616BD8A0610788
:103BBC001200000162516311D8B4E7EF1DF0E9EF78
:103BCC001DF0F2EF1DF062516311D8A4F0EF1DF05F
:103BDC00F2EF1DF0F7EF1DF0605100EC23F044EF15
:103BEC001EF020EE04F06251D9266351DA22DE5029
:103BFC00DE10D8B404EF1EF006EF1EF021EF1EF01D
:103C0C0020EE04F06251D9266351DA2210EE02F054
:103C1C006251E1266351E222DE50E65CE650800AF6
:103C2C00686FDE50800A6859D8B01FEF1EF021EF84
:103C3C001EF044EF1EF020EE02F06251D9266351C3
:103C4C00DA22DECF64F0DDCF65F062C0D9FF63C04D
:103C5C00DAFFDECF66F0DDCF67F064516625D96EF2
:103C6C0065516721DA6E60C0DFFF20EE02F0625111
:103C7C00D9266351DA22DE2A000EDD2212002FA093
:103C8C004AEF1EF04CEF1EF056EF1EF072C069F0BA
:103C9C0073C06AF070C06BF071C06CF0EFEC21F087
:103CAC00000175BF5CEF1EF05EEF1EF064EF1EF0BE
:103CBC0074C079F075C07AF068EF1EF0000E7A6F60
:103CCC00000E796F000E786F000E776F7BEF1EF091
:103CDC00000E616F200E606F70C062F071C063F0F7
:103CEC00DFEC1DF00001774B782B7951775D785123
:103CFC00800A766F7A51800A7659D8A088EF1EF028
:103D0C008AEF1EF06EEF1EF02FB08FEF1EF091EFCA
:103D1C001EF09BEF1EF072C069F073C06AF070C0A9
:103D2C006BF071C06CF0EFEC21F072C060F073C0FE
:103D3C0061F09FEC21F0000179516025706F7A5190
:103D4C006121716F1200000E0001656F63BFB3EF4C
:103D5C001EF0B1EF1EF0B9EF1EF0626D631FD8B00C
:103D6C00632B010E656F61BFC0EF1EF0BEEF1EF03E
:103D7C00C6EF1EF0606D611FD8B0612B010E651B84
:103D8C00000E676F000E666F62516311D8B4D1EFED
:103D9C001EF0D3EF1EF0FBEF1EF0010E646FDBEF95
:103DAC001EF0D89062376337642B63AFE0EF1EF0E0
:103DBC00E2EF1EF0D7EF1EF0D890663767376251EE
:103DCC00605D63516159D8A0EEEF1EF0F0EF1EF06C
:103DDC00F5EF1EF06251605F6351615B6681D890B4
:103DEC0063336233642FE2EF1EF06551D8B401EFF8
:103DFC001FF003EF1FF007EF1FF0666D671FD8B0C1
:103E0C00672B66C060F067C061F01200000E000105
:103E1C00656F61BF16EF1FF014EF1FF01CEF1FF062
:103E2C00606D611FD8B0612B010E656F63BF23EF0E
:103E3C001FF021EF1FF027EF1FF0626D631FD8B04A
:103E4C00632B62516311D8B42EEF1FF030EF1FF0CB
:103E5C0054EF1FF0010E646F38EF1FF0D8906237EB
:103E6C006337642B63AF3DEF1FF03FEF1FF034EF70
:103E7C001FF06251605D63516159D8A048EF1FF08B
:103E8C004AEF1FF04EEF1FF06251605F6351615BB0
:103E9C00D89063336233642F3FEF1FF06551D8B471
:103EAC005AEF1FF05CEF1FF060EF1FF0606D611FA9
:103EBC00D8B0612B60C060F061C061F0120039C0F5
:103ECC000FF03AC010F03BC011F03CC012F0000EE5
:103EDC00136E000E146E480E156E420E166EF2EC3A
:103EEC001BF0D8B07CEF1FF07EEF1FF081EF1FF0BE
:103EFC00BE50E20FBE6E000E0F6E000E106E700EF6
:103F0C00116E420E126E39C013F03AC014F03BC061
:103F1C0015F03CC016F0F2EC1BF0D8B098EF1FF087
:103F2C009AEF1FF09FEF1FF0BE50500FBE6EBBEF0D
:103F3C001FF039C00FF03AC010F03BC011F03CC07C
:103F4C0012F0000E136E000E146E5C0E156E420E07
:103F5C00166EF2EC1BF0D8A0B6EF1FF0B8EF1FF006
:103F6C00BBEF1FF0BE50050FBE6E1200000E00011D
:103F7C006015686F000E6115696F800E62156A6FAF
:103F8C007F0E63156B6F685169116A116B11D8A4A0
:103F9C00D2EF1FF0D4EF1FF0DCEF1FF0000E606FBC
:103FAC00000E616F000E626F000E636F000E6415E1
:103FBC00686F000E6515696F800E66156A6F7F0E4F
:103FCC0067156B6F685169116A116B11D8A4F1EF09
:103FDC001FF0F3EF1FF0FBEF1FF0000E646F000EED
:103FEC00656F000E666F000E676F645160190FE10C
:103FFC00655161190CE16651621909E16751631948
:10400C00D8B40BEF20F00DEF20F010EF20F0D8908B
:10401C0011EF20F0D8801200000E00016C6F000E22
:10402C006B6F64C060F065C061F09FEC21F060C004
:10403C0069F061C06AF043EF20F06B516425666F44
:10404C006C516521676F66C0F6FF67C0F7FFF86AB1
:10405C00070EF76403D00800F55005D0F6CFE1FF4A
:10406C00F7CFE2FFE7500001686F6851606F616B3A
:10407C00C6EC22F000016B4B6C2B000169516B5D9F
:10408C006C51800A666F6A51800A6659D8A051EF4C
:10409C0020F053EF20F023EF20F01200000E0D6EF5
:1040AC00000E0C6E05C001F006C002F0C8EC21F049
:1040BC0001C00AF002C00BF082EF20F00C50052476
:1040CC00076E0D500620086E07C0F6FF08C0F7FFFC
:1040DC00F86A070EF76403D00800F55005D0F6CF48
:1040EC00E1FFF7CFE2FFE750096E0950016E026A5B
:1040FC00E2EC22F00C4A0D2A0A500C5C0D50800A9E
:10410C00076E0B50800A0758D8A08FEF20F091EF64
:10411C0020F064EF20F012005AC1F5F05BC1F6F00C
:10412C00000E0001F86F000EF76FB0EF20F058C1D1
:10413C00DDF059C1DEF0F50EDF6F000EE06F5CC1F3
:10414C00E1F05DC1E2F061EC0AF00001DD51F7270E
:10415C00DE51F823F5C0F6FFF6C0F7FF0800F55066
:10416C000009D8A4BCEF20F0BEEF20F09DEF20F0AA
:10417C00F7C058F1F8C059F11200BF0E0001686F7A
:10418C00FF0E696F66C06AF067C06BF068516A27F2
:10419C0069516B236B510AE11A0E6A5DD8A0D9EFF5
:1041AC0020F0DCEF20F0010EDDEF20F0000E6C6F44
:1041BC006D6B6C516D11D8B4E6EF20F0E8EF20F088
:1041CC00EFEF20F0200E6611666F6751676FF3EF0B
:1041DC0020F066C066F067C067F0120062C066F03F
:1041EC0063C067F060C068F061C069F0000166519F
:1041FC00646F6751656F664B672B64C0F6FF65C0D3
:10420C00F7FFF86A68C0D9FF69C0DAFF684B692B01
:10421C00070EF76403D00800F55005D0F6CFE1FF88
:10422C00F7CFE2FFE750DF6EDF50D8A420EF21F08C
:10423C0022EF21F0FCEF20F01200010E0001666F5E
:10424C00200E60196111D8B42EEF21F030EF21F05F
:10425C0049EF21F0F70E626FFF0E636F60C064F0E0
:10426C0061C065F06251642763516523655109E1B2
:10427C00050E645DD8A045EF21F047EF21F049EF22
:10428C0021F0000E666F66C060F0616B1200FC0ED0
:10429C00F66E450EF76E000EF86E00EE3DF010EE69
:1042AC0004F00900F5CFEEFFE550E150FAE101EE24
:1042BC0000F0580EEE6AE806FDE100EEF7F0080E8D
:1042CC00EE6AE806FDE100EE23F0160EEE6AE80653
:1042DC00FDE141904192000EF86E0001C7EF16F01F
:1042EC00620E0101666F010E676F5EC168F15FC1FE
:1042FC0069F1000E6B6F000E6A6F000E6D6F000E91
:10430C006C6F680E586F010E596F60C15AF161C124
:10431C005BF1660E5C6F010E5D6F92EC20F001019B
:10432C006A515E25D96E6B515F21DA6E000EDF6E1D
:10433C00120060C062F061C063F0A8EF21F00001D0
:10434C00604B612B60C0F6FF61C0F7FFF86A070E87
:10435C00F76403D00800F55005D0F6CFE1FFF7CF96
:10436C00E2FFE7500009D8A4BEEF21F0C0EF21F026
:10437C00A5EF21F000016251605D606F63516159DE
:10438C00616F120001C003F002C004F0D0EF21F005
:10439C00014A022A01C0F6FF02C0F7FFF86A070EB5
:1043AC00F76403D00800F55005D0F6CFE1FFF7CF46
:1043BC00E2FFE7500009D8A4E6EF21F0E8EF21F086
:1043CC00CEEF21F00350015C016E04500258026ED6
:1043DC001200000E00016F6F000E6E6F02EF22F0E4
:1043EC006DC060F0616B6BC062F06CC063F0DFECB1
:1043FC001DF000016E4B6F2B6E516925D96E6F51FC
:10440C006A21DA6EDF506D6F6D51D8A410EF22F077
:10441C0012EF22F0F6EF21F01200000E0001911BBA
:10442C00000E921B000E931B800E941B8DC060F02F
:10443C008EC061F08FC062F090C063F091C064F0E8
:10444C0092C065F093C066F094C067F017EC0DF065
:10445C0060C08DF061C08EF062C08FF063C090F0D0
:10446C001200BF0E0001626FFF0E636F60C064F03C
:10447C0061C065F0625164276351652365510AE19F
:10448C001A0E645DD8A04DEF22F050EF22F0010E11
:10449C0051EF22F0000E606F616B12000001605151
:1044AC00611162116311D8B45EEF22F060EF22F05B
:1044BC0068EF22F0000E601B000E611B000E621BE9
:1044CC00800E631B60C060F061C061F062C062F07E
:1044DC0063C063F01200D00E0001626FFF0E636FB9
:1044EC0060C064F061C065F062516427635165235C
:1044FC0065510AE10A0E645DD8A087EF22F08AEFBD
:10450C0022F0010E8BEF22F0000E606F616B120037
:10451C00070E926E0C0EC16EC050F80B0609C06EE1
:10452C00C050C70B2009C06EC08E000EC26EC250A8
:10453C00C30B0809C26EC2801200000160516203F5
:10454C00F3CF64F0F4CF65F060516303F35065274B
:10455C0061516203F350652764C060F065C061F07F
:10456C0012008494848260C083FF030E0001626F8A
:10457C00970EE82EFED7622FFCD700D08492120043
:10458C008484848260C083FF030E0001626F970EE7
:10459C00E82EFED7622FFCD700D0849212008494B0
:1045AC00848201C083FF030E036E980EE82EFED7A3
:1045BC00032EFCD7849212008484848201C083FF72
:1045CC00030E036E980EE82EFED7032EFCD78492B2
:1045DC001200000E0001616F010E606FB7EC22F04B
:1045EC001200000E026E010E016ED5EC22F01200CC
:0645FC002B003C00120040
:020000040020DA
:08000000FFFFFFFFFFFFFFFF00
:020000040030CA
:0E000000000C1F1EFF8385FF0FC00FE00F4096
:00000001FF
