:0400000007EF00F016
:0A0008004E82D0ED1CF0C9EF1FF08E
:10080000002047726175732043656C7369757300CE
:1008100050455249474F2042414958410054454DA7
:1008200050455241545552410050455249474F207E
:10083000414C54410054656D70657261747572610C
:100840000025332E326600494E46004E414E006967
:0B0850006E66006E616E006C660000BA
:10085C00000E0001936F000E926F6EC0A4F06FC07B
:10086C00A5F070C0A6F071C0A7F0A7BF42EF04F0CE
:10087C0040EF04F058EF04F0000E936F010E926FEE
:10088C00A4C011F0A5C012F0A6C013F0A7C014F0BC
:10089C00CDEC20F011C0A4F012C0A5F013C0A6F04E
:1008AC0014C0A7F0000E0001AB6F000EAA6FECC0D5
:1008BC0096F0EDC097F092519311D8A468EF04F024
:1008CC006AEF04F071EF04F042A46FEF04F071EFE3
:1008DC0004F08BEF04F092519311D8A478EF04F04C
:1008EC007AEF04F080EF04F0000E796F2B0E786F26
:1008FC0084EF04F0000E796F2D0E786F78C000F144
:10090C00AA4BAB2B9607D8A09707A4C011F0A5C093
:10091C0012F0A6C013F0A7C014F081EC1BF0110468
:10092C001210D8A49CEF04F09EEF04F0F5EF04F045
:10093C00BF0E0001736FFF0E746F7251756F766B83
:10094C00735175277451762376510AE11A0E755D31
:10095C00D8A0B3EF04F0B6EF04F0010EB7EF04F03B
:10096C00000E7A6F7B6B7A517B11D8B4C0EF04F018
:10097C00C2EF04F0D0EF04F0000EAA25116E010EA8
:10098C00AB21126E470E136E080E146E9BEC1FF00B
:10099C00DCEF04F0000EAA25116E010EAB21126ED5
:1009AC004F0E136E080E146E9BEC1FF00001FD0E23
:1009BC009627FF0E97236CC021F06DC022F0000E1D
:1009CC00236E010E246E96C025F097C026F097EC8E
:1009DC001DF021C06CF022C06DF05BEF0AF0A4C0DA
:1009EC0011F0A5C012F0A6C013F0A7C014F081EC52
:1009FC001BF011501210D8A406EF05F008EF05F00B
:100A0C0048EF05F0BF0E0001736FFF0E746F72514B
:100A1C00756F766B735175277451762376510AE195
:100A2C001A0E755DD8A01DEF05F020EF05F0010E34
:100A3C0021EF05F0000E7C6F7D6B7C517D11D8B4DD
:100A4C002AEF05F02CEF05F03AEF05F0000EAA2581
:100A5C00116E010EAB21126E4B0E136E080E146E3E
:100A6C009BEC1FF0DCEF04F0000EAA25116E010EBA
:100A7C00AB21126E530E136E080E146E9BEC1FF00E
:100A8C00DCEF04F0000E0001AC6F000EAD6F800EB9
:100A9C00AE6F3F0EAF6F000EA96F000EA86FA4C013
:100AAC0011F0A5C012F0A6C013F0A7C014F0000EF0
:100ABC00156E000E166E000E176E000E186EA7EC5B
:100ACC001EF0D8B06CEF05F06EEF05F0F3EF05F00B
:100ADC008DEF05F0ACC025F0ADC026F0AEC027F010
:100AEC00AFC028F0000E296E000E2A6E200E2B6E61
:100AFC00410E2C6ED2EC11F025C0ACF026C0ADF03E
:100B0C0027C0AEF028C0AFF00001A84BA92BA4C0A1
:100B1C0060F0A5C061F0A6C062F0A7C063F0000E43
:100B2C00296E000E2A6E200E2B6E410E2C6EACC060
:100B3C0025F0ADC026F0AEC027F0AFC028F0D2EC47
:100B4C0011F025C064F026C065F027C066F028C0FF
:100B5C0067F07CEC1AF00001D8B0B7EF05F0B9EFF4
:100B6C0005F070EF05F0D9EF05F0ACC011F0ADC099
:100B7C0012F0AEC013F0AFC014F0000E156E000EE4
:100B8C00166E200E176E410E186EE7EC13F011C0A6
:100B9C00ACF012C0ADF013C0AEF014C0AFF0000159
:100BAC00A807D8A0A907A4C060F0A5C061F0A6C092
:100BBC0062F0A7C063F0ACC064F0ADC065F0AEC02D
:100BCC0066F0AFC067F07CEC1AF00001D8A0F1EF32
:100BDC0005F0F3EF05F0BBEF05F072C017F0186AE3
:100BEC006BEC1FF017500001996F99C098F0670ECD
:100BFC009919D8A404EF06F006EF06F02CEF06F0D6
:100C0C00EE51EF11D8A40DEF06F00FEF06F013EF35
:100C1C0006F0000EEF6F010EEE6FEFBF20EF06F047
:100C2C00EF5106E1EE05D8B01EEF06F020EF06F00E
:100C3C0026EF06F0000E956F060E946F35EF06F05A
:100C4C00EEC094F0EFC095F035EF06F0EFBF31EF4A
:100C5C0006F033EF06F020EF06F026EF06F0670EF5
:100C6C009919D8A43CEF06F03EEF06F06DEF06F0B4
:100C7C00A9AF4CEF06F0FC0EA85DFF0EA959D8A049
:100C8C004AEF06F04CEF06F06BEF06F0FF0E736FB9
:100C9C00FF0E746F94C075F095C076F07351752784
:100CAC0074517623A851755D7651800A776FA951DE
:100CBC00800A7759D8A065EF06F067EF06F06BEF66
:100CCC0006F0660E986F6DEF06F0650E986F94C087
:100CDC008AF095C08BF0670E9919D8A478EF06F0BE
:100CEC007AEF06F08AEF06F0660E9819D8A481EF19
:100CFC0006F083EF06F08CEF06F0A9BF8AEF06F042
:100D0C0088EF06F08CEF06F08A4B8B2B660E981949
:100D1C00D8A493EF06F095EF06F0B5EF06F0A9BF57
:100D2C009CEF06F09AEF06F0A8EF06F0000EAC6F01
:100D3C00000EAD6F800EAE6F3F0EAF6F000EA96F41
:100D4C00000EA86F670E9919D8B4AFEF06F0B1EF8B
:100D5C0006F0B5EF06F0A8518A27A9518B23000E97
:100D6C00A36F000EA26FA4C09AF0A5C09BF0A6C002
:100D7C009CF0A7C09DF0ACC08CF0ADC08DF0AEC0A7
:100D8C008EF0AFC08FF046EF07F09AC011F09BC009
:100D9C0012F09CC013F09DC014F0ACC015F0ADC0A7
:100DAC0016F0AEC017F0AFC018F0E7EC13F011C09E
:100DBC002AF012C02BF013C02CF014C02DF0B4ECA0
:100DCC0015F02AC09EF02BC09FF02CC0A0F02DC0B7
:100DDC00A1F09EC011F09FC012F0A0C013F0A1C0F2
:100DEC0014F0F9EC19F011C090F012C091F09AC007
:100DFC0060F09BC061F09CC062F09DC063F0ACC021
:100E0C0029F0ADC02AF0AEC02BF0AFC02CF09EC0C4
:100E1C0025F09FC026F0A0C027F0A1C028F0D2EC8E
:100E2C0011F025C064F026C065F027C066F028C01C
:100E3C0067F06BEC20F060C09AF061C09BF062C070
:100E4C009CF063C09DF0ACC011F0ADC012F0AEC010
:100E5C0013F0AFC014F0000E156E000E166E200EBF
:100E6C00176E410E186EE7EC13F011C0ACF012C007
:100E7C00ADF013C0AEF014C0AFF00001A24BA32B29
:100E8C008A51A25DA351800A736F8B51800A7359EA
:100E9C00D8A053EF07F055EF07F0CBEF06F0ACC03E
:100EAC0025F0ADC026F0AEC027F0AFC028F0000E84
:100EBC00296E000E2A6EA00E2B6E400E2C6ED2ECFC
:100ECC0011F025C09EF026C09FF027C0A0F028C0CE
:100EDC00A1F09AC060F09BC061F09CC062F09DC014
:100EEC0063F09EC064F09FC065F0A0C066F0A1C026
:100EFC0067F07CEC1AF00001D8B087EF07F089EFAF
:100F0C0007F093EF07F0000E9E6F000E9F6F000E20
:100F1C00A06F000EA16FBCEF07F09AC011F09BC040
:100F2C0012F09CC013F09DC014F09EC015F09FC031
:100F3C0016F0A0C017F0A1C018F0A7EC1EF0D8A0B6
:100F4C00AAEF07F0ACEF07F0BCEF07F0000190B18F
:100F5C00B2EF07F0B4EF07F0BCEF07F0000E9E6F96
:100F6C00000E9F6F000EA06F000EA16FA4C011F0B9
:100F7C00A5C012F0A6C013F0A7C014F09EC015F0C7
:100F8C009FC016F0A0C017F0A1C018F012EC0DF025
:100F9C0011C09AF012C09BF013C09CF014C09DF0CD
:100FAC009AC060F09BC061F09CC062F09DC063F081
:100FBC00000E296E000E2A6E200E2B6E410E2C6E2A
:100FCC008CC025F08DC026F08EC027F08FC028F085
:100FDC00D2EC11F025C064F026C065F027C066F095
:100FEC0028C067F07CEC1AF00001D8A000EF08F0E4
:100FFC0002EF08F02AEF08F0A84BA92B8CC025F0C3
:10100C008DC026F08EC027F08FC028F0000E296E00
:10101C00000E2A6E200E2B6E410E2C6ED2EC11F0AF
:10102C0025C08CF026C08DF027C08EF028C08FF024
:10103C00660E00019819D8A426EF08F028EF08F0E6
:10104C002AEF08F08A4B8B2B8CC0ACF08DC0ADF026
:10105C008EC0AEF08FC0AFF0650E9819D8B439EFD2
:10106C0008F03BEF08F041EF08F0A8C088F0A9C0E9
:10107C0089F045EF08F0000E896F000E886F000EA6
:10108C00876F000E866F000E856F000E846F000E4A
:10109C00A36F000EA26F41EF09F09AC011F09BC034
:1010AC0012F09CC013F09DC014F0ACC015F0ADC094
:1010BC0016F0AEC017F0AFC018F0E7EC13F011C08B
:1010CC002AF012C02BF013C02CF014C02DF0B4EC8D
:1010DC0015F02AC09EF02BC09FF02CC0A0F02DC0A4
:1010EC00A1F09EC011F09FC012F0A0C013F0A1C0DF
:1010FC0014F0F9EC19F011C090F012C091F042B854
:10110C008AEF08F08CEF08F0AAEF08F0000190517C
:10111C009111D8A494EF08F096EF08F0AAEF08F01C
:10112C00670E9919D8A49DEF08F09FEF08F0AAEF6D
:10113C0008F089BFA6EF08F0A4EF08F0AAEF08F0BA
:10114C00844B852BF5EF08F0000186518711D8A44C
:10115C00B2EF08F0B4EF08F0DEEF08F089BFBBEF98
:10116C0008F0B9EF08F0DEEF08F0000EAA25D96EF2
:10117C00010EAB21DA6E2E0EDF6EAA4BAB2B96074F
:10118C00D8A09707000E876F010E866FDEEF08F070
:10119C00000EAA25D96E010EAB21DA6E300EDF6E71
:1011AC00AA4BAB2B9607D8A097078407D8A0850726
:1011BC0084518511D8A4E5EF08F0E7EF08F0CEEFE5
:1011CC0008F0000EAA25D96E010EAB21DA6E9051F3
:1011DC00300FDF6EAA4BAB2B9607D8A097079AC09F
:1011EC0060F09BC061F09CC062F09DC063F0ACC02D
:1011FC0029F0ADC02AF0AEC02BF0AFC02CF09EC0D1
:10120C0025F09FC026F0A0C027F0A1C028F0D2EC9A
:10121C0011F025C064F026C065F027C066F028C028
:10122C0067F06BEC20F060C09AF061C09BF062C07C
:10123C009CF063C09DF0ACC011F0ADC012F0AEC01C
:10124C0013F0AFC014F0000E156E000E166E200ECB
:10125C00176E410E186EE7EC13F011C0ACF012C013
:10126C00ADF013C0AEF014C0AFF000018807D8A0E9
:10127C008907A24BA32B8A51A25DA351800A736FDD
:10128C008B51800A7359D8B04EEF09F050EF09F02A
:10129C005EEF09F0ABBF5CEF09F0AB5109E14B0E0F
:1012AC00AA5DD8A05CEF09F05EEF09F053EF08F0EF
:1012BC0086518711D8A465EF09F067EF09F078EF34
:1012CC0009F042A86CEF09F06EEF09F078EF09F025
:1012DC00000EAA25D96E010EAB21DA6E2E0EDF6E32
:1012EC00AA4BAB2B000EAA25D96E010EAB21DA6EE0
:1012FC00000EDF6E650E9819D8A487EF09F089EF00
:10130C0009F0E1EF04F0000EA36F4F0EA26F000E78
:10131C00A225D96E010EA321DA6E000EDF6E000E2F
:10132C00936F000E926FA9BFA0EF09F09EEF09F02A
:10133C00A8EF09F0000E936F010E926FA86DA91F14
:10134C00D8B0A92B000E956F020E946FD9EF09F04F
:10135C00A207D8A0A307000EA225D96E010EA321C7
:10136C00DA6EA8C011F0A9C012F0000E146E0A0EAD
:10137C00136EF8EC1DF01150300FDF6EA8C011F099
:10138C00A9C012F0000E146E0A0E136E35EC1DF08F
:10139C0011C0A8F012C0A9F000019407D8A09507BD
:1013AC009607D8A09707A851A911D8A4E0EF09F087
:1013BC00E2EF09F0AEEF09F095BFEFEF09F09551B0
:1013CC0006E19405D8B0EDEF09F0EFEF09F0AEEFC0
:1013DC0009F0A207D8A0A30792519311D8A4F9EF52
:1013EC0009F0FBEF09F001EF0AF0000E7F6F2B0EF6
:1013FC007E6F05EF0AF0000E7F6F2D0E7E6F000ED4
:10140C00A225D96E010EA321DA6E7EC0DFFF9607EE
:10141C00D8A09707A207D8A0A307BF0E736FFF0E23
:10142C00746F7251756F766B735175277451762387
:10143C0076510AE11A0E755DD8A027EF0AF02AEF53
:10144C000AF0010E2BEF0AF0000E826F836B8251B3
:10145C008311D8A434EF0AF036EF0AF03CEF0AF00F
:10146C00000E816F650E806F40EF0AF0000E816FE9
:10147C00450E806F000EA225D96E010EA321DA6EE7
:10148C0080C0DFFF9607D8A09707000EAA25116E23
:10149C00010EAB21126E000EA225136E010EA321BC
:1014AC00146E9BEC1FF0E1EF04F01200B2C0D9FFF8
:1014BC00B3C0DAFFDECFF6FFDDCFF7FF0800F55043
:1014CC00250AD8A46CEF0AF06EEF0AF0F6EF0CF0D8
:1014DC00B2C0D9FFB3C0DAFFDE2A000EDD22000E47
:1014EC000001ED6F000EEC6FECC042F0EDC043F06C
:1014FC00EE69EF69B2C0D9FFB3C0DAFFDECFF6FFF9
:10150C00DDCFF7FF0800F5502A0AD8A490EF0AF0B7
:10151C0092EF0AF0BBEF0AF0B2C0D9FFB3C0DAFF0A
:10152C00DE2A000EDD22B4C0D9FFB5C0DAFFDFCF52
:10153C00B6F0020EDE26DFCFB7F0000EDD22B6C00D
:10154C00D9FFB7C0DAFFDECFECF0DDCFEDF0EDBFA9
:10155C00B4EF0AF0B2EF0AF0FFEF0AF04280EC6D44
:10156C00ED1FD8B0ED2BFFEF0AF0B2C0D9FFB3C01E
:10157C00DAFFDECF18F0DDCF19F08EEC18F018C0C2
:10158C00ECF019C0EDF0D2EF0AF0B2C0D9FFB3C045
:10159C00DAFFDE2A000EDD22D00E0001B66FFF0E40
:1015AC00B76FB2C0D9FFB3C0DAFFDECFF6FFDDCF25
:1015BC00F7FF0800F550B86FB96BB651B827B751A3
:1015CC00B923B9510AE10A0EB85DD8A0F0EF0AF0C0
:1015DC00F3EF0AF0010EF4EF0AF0000EBA6FBB6BDA
:1015EC00BA51BB11D8A4FDEF0AF0FFEF0AF0CBEF14
:1015FC000AF0B2C0D9FFB3C0DAFFDECFF6FFDDCF01
:10160C00F7FF0800F5502E0AD8A40FEF0BF011EFDE
:10161C000BF08FEF0BF0000EEF6F000EEE6FB2C001
:10162C00D9FFB3C0DAFFDE2A000EDD22B2C0D9FF2B
:10163C00B3C0DAFFDECFF6FFDDCFF7FF0800F550C1
:10164C002A0AD8A42CEF0BF02EEF0BF04BEF0BF07B
:10165C00B2C0D9FFB3C0DAFFDE2A000EDD22B4C05F
:10166C00D9FFB5C0DAFFDFCFB6F0020EDE26DFCF32
:10167C00B7F0000EDD22B6C0D9FFB7C0DAFFDECF5F
:10168C00EEF0DDCFEFF08FEF0BF0B2C0D9FFB3C0AF
:10169C00DAFFDECF18F0DDCF19F08EEC18F018C0A1
:1016AC00EEF019C0EFF062EF0BF0B2C0D9FFB3C08F
:1016BC00DAFFDE2A000EDD22D00E0001B66FFF0E1F
:1016CC00B76FB2C0D9FFB3C0DAFFDECFF6FFDDCF04
:1016DC00F7FF0800F550B86FB96BB651B827B75182
:1016EC00B923B9510AE10A0EB85DD8A080EF0BF00E
:1016FC0083EF0BF0010E84EF0BF0000EBC6FBD6B93
:10170C00BC51BD11D8A48DEF0BF08FEF0BF05BEF3C
:10171C000BF0B2C0D9FFB3C0DAFFDECFF6FFDDCFDE
:10172C00F7FF0800F550176E186A6BEC1FF0175096
:10173C000001C06FC051D8B4A6EF0BF0A8EF0BF0AE
:10174C00E2EF0BF0B2C0D9FFB3C0DAFFDECFB6F0D8
:10175C00DDCFB7F0010EB627000EB723B6C0F6FFEB
:10176C00B7C0F7FF0800F550176E186A6BEC1FF046
:10177C0017500001C16FC151D8B4C7EF0BF0C9EFBE
:10178C000BF0E2EF0BF0B2C0D9FFB3C0DAFFDECF43
:10179C00B6F0DDCFB7F0020EB627000EB723B6C0F9
:1017AC00F6FFB7C0F7FF0800F550176E186A6BEC20
:1017BC001FF017500001C26F660EC019D8A4E9EFD4
:1017CC000BF0EBEF0BF02BEF0CF0B2C0D9FFB3C06A
:1017DC00DAFFDECFF6FFDDCFF7FF0800F5CFC7F05D
:1017EC00B2C0D9FFB3C0DAFFDE2A000EDD22B4C0CE
:1017FC00D9FFB5C0DAFFDFCFB6F0040EDE26DFCF9F
:10180C00B7F0000EDD22B6C0D9FFB7C0DAFFDECFCD
:10181C00C3F0DECFC4F0DECFC5F0DECFC6F0B0C073
:10182C006CF0B1C06DF0C3C06EF0C4C06FF0C5C039
:10183C0070F0C6C071F0C7C072F02EEC04F06CC032
:10184C00B0F06DC0B1F011EF0DF0C00E116E000EC6
:10185C00126E570E136E080E146E000E166E020EDC
:10186C00156E00EC1CF011501210D8A440EF0CF0C7
:10187C0042EF0CF0BEEF0CF0B2C0D9FFB3C0DAFFF0
:10188C00DECFB6F0DDCFB7F0010E0001B627000EAB
:10189C00B723B6C0F6FFB7C0F7FF0800F5CFC7F007
:1018AC00BF0EB66FFF0EB76FB2C0D9FFB3C0DAFF71
:1018BC00DECFF6FFDDCFF7FF0800F550B86FB96B40
:1018CC00B651B827B751B923B9510AE11A0EB85D10
:1018DC00D8A073EF0CF076EF0CF0010E77EF0CF054
:1018EC00000EBE6FBF6BBE51BF11D8B480EF0CF0B1
:1018FC0082EF0CF09CEF0CF0B4C0D9FFB5C0DAFF4E
:10190C00DFCFB6F0040EDE26DFCFB7F0000EDD22FF
:10191C00B6C0D9FFB7C0DAFFDECFC3F0DECFC4F05C
:10192C00DECFC5F0DECFC6F0B4EF0CF0B4C0D9FFFB
:10193C00B5C0DAFFDFCFB6F0040EDE26DFCFB7F08E
:10194C00000EDD22B6C0D9FFB7C0DAFFDECFC3F080
:10195C00DECFC4F0DECFC5F0DECFC6F0020EB2C0D3
:10196C00D9FFB3C0DAFFDE26000EDD2215EF0CF036
:10197C00B2C0D9FFB3C0DAFFDECFF6FFDDCFF7FF81
:10198C000800F550250AD8A4CEEF0CF0D0EF0CF0DF
:10199C00E8EF0CF0B2C0D9FFB3C0DAFFDE2A000EBC
:1019AC00DD22000E126E250E116EB0C013F0B1C008
:1019BC0014F06BEC1CF0000E0001B16F010EB06F57
:1019CC0011EF0DF0B2C0D9FFB3C0DAFFDE2A000E62
:1019DC00DD22000E0001B16F000EB06F11EF0DF0A3
:1019EC00B2C0D9FFB3C0DAFFDECFF6FFDDCFF7FF11
:1019FC000800F550116E126AB0C013F0B1C014F0AB
:101A0C006BEC1CF0B2C0D9FFB3C0DAFFDE2A000EBB
:101A1C00DD22E1EF0CF012001450800B1D6E1450FF
:101A2C0014241F6E13AE1DEF0DF01FEF0DF020EF01
:101A3C000DF01F801F50D8B426EF0DF028EF0DF0DD
:101A4C003DEF0DF01F28D8A42EEF0DF030EF0DF068
:101A5C0038EF0DF0000E116E000E126E000E136EAC
:101A6C00000E146E138E000E146E45EF0DF0000E6A
:101A7C00116E000E126E000E136E000E146E1850C6
:101A8C00800B1E6E1D501E18D8B44FEF0DF051EF89
:101A9C000DF052EF0DF01D8C185018241E6E17AE61
:101AAC005AEF0DF05CEF0DF05DEF0DF01E801E5047
:101ABC00D8B463EF0DF065EF0DF07AEF0DF01E2842
:101ACC00D8A46BEF0DF06DEF0DF075EF0DF0000E6F
:101ADC00156E000E166E000E176E000E186E178E19
:101AEC00000E186E82EF0DF0000E156E000E166EC5
:101AFC00000E176E000E186E1F501E5CD8B089EFCA
:101B0C000DF08BEF0DF0B2EF0DF01DAC90EF0DF072
:101B1C0092EF0DF094EF0DF0800E1D1A1FC020F007
:101B2C001EC01FF020C01EF011C020F015C011F017
:101B3C0020C015F012C020F016C012F020C016F014
:101B4C0013C020F017C013F020C017F014C020F001
:101B5C0018C014F020C018F0000E206E1F501EC0CC
:101B6C0019F01A6A195E000E1A5A1ABEC7EF0DF058
:101B7C001A5009E11A0E195CD8A0C7EF0DF0C9EF85
:101B8C000DF000EF0EF01150121013101410D8A419
:101B9C00D2EF0DF0D5EF0DF0010ED6EF0DF0000EDB
:101BAC00206E000E116E000E126E000E136E000EE3
:101BBC00146E1EC01FF009EF0EF020A0E8EF0DF020
:101BCC00EAEF0DF0F0EF0DF0D89020300109206E07
:101BDC00F2EF0DF0D890203211A0F7EF0DF0F9EFE5
:101BEC000DF0FAEF0DF0208E143414321332123241
:101BFC0011321F2A1E501F5CD8A007EF0EF009EF00
:101C0C000EF0E3EF0DF01DBC0EEF0EF010EF0EF02A
:101C1C0050EF0EF01F50D8A416EF0EF018EF0EF088
:101C2C0022EF0EF0000E116E000E126E000E136EEF
:101C3C00000E146E71EF0FF0155011261650122273
:101C4C00175013221850142214A02FEF0EF031EF5E
:101C5C000EF0DDEF0EF020A036EF0EF038EF0EF0A8
:101C6C003EEF0EF0D89020300109206E40EF0EF0C0
:101C7C00D890203211A045EF0EF047EF0EF048EF50
:101C8C000EF0208E143414321332123211321F2AF9
:101C9C00DDEF0EF01550115C1650125817501358FA
:101CAC001450800A196E1850800A1958D8B061EF78
:101CBC000EF063EF0EF08EEF0EF01150155C196EF6
:101CCC00125016581A6E135017581B6E1450185881
:101CDC001C6EFF0E1924116EFF0E1A20126EFF0ED1
:101CEC001B20136EFF0E1C20146E800E1D1A206C10
:101CFC002050D8A484EF0EF086EF0EF096EF0EF085
:101D0C00010E1126000E12221322142296EF0EF051
:101D1C001550115E1650125A1750135A1850145A67
:101D2C001150121013101410D8A49FEF0EF0A1EF45
:101D3C000EF0D6EF0EF02050D8A4A7EF0EF0A9EFBE
:101D4C000EF0D6EF0EF0000E116E000E126E000E9D
:101D5C00136E000E146E71EF0FF0D8901136123610
:101D6C001336143620AEBDEF0EF0BFEF0EF0C0EF01
:101D7C000EF0118020A0C5EF0EF0C7EF0EF0CBEFE8
:101D8C000EF0D8802036CDEF0EF0D89020361F50B4
:101D9C00D8B4D3EF0EF0D5EF0EF0D6EF0EF01F0641
:101DAC0013AEDBEF0EF0DDEF0EF0B3EF0EF0000E26
:101DBC001E6E20AEE4EF0EF0E6EF0EF0FEEF0EF02E
:101DCC0020C019F07F0E1916D8B4EFEF0EF0F1EF1A
:101DDC000EF0F5EF0EF0010E1E6EFEEF0EF011A0E0
:101DEC00FAEF0EF0FCEF0EF0FEEF0EF0F1EF0EF04E
:101DFC001E50D8B404EF0FF006EF0FF031EF0FF0D8
:101E0C00010E1126000E12221322142214A011EF1F
:101E1C000FF013EF0FF031EF0FF011C019F012C0EB
:101E2C001AF013C01BF014C01CF01C341C321B32F3
:101E3C001A32193219C011F01AC012F01BC013F06B
:101E4C001CC014F01F28D8B42EEF0FF030EF0FF099
:101E5C0031EF0FF01F2A1F28D8B437EF0FF039EFEE
:101E6C000FF041EF0FF01F50D8A43FEF0FF041EFF0
:101E7C000FF053EF0FF0000E116E000E126E000EED
:101E8C00136E000E146E1F50D8A44FEF0FF051EFCD
:101E9C000FF053EF0FF0000E1D6E1FA058EF0FF058
:101EAC005AEF0FF05DEF0FF0138E5EEF0FF0139EF5
:101EBC00D8901F30146E1DAE66EF0FF068EF0FF068
:101ECC0069EF0FF0148E11C011F012C012F013C094
:101EDC0013F014C014F012000450800B0D6E04505B
:101EEC0004240F6E03AE7DEF0FF07FEF0FF080EF49
:101EFC000FF00F800F50D8B486EF0FF088EF0FF073
:101F0C009DEF0FF00F28D8A48EEF0FF090EF0FF08D
:101F1C0098EF0FF0000E016E000E026E000E036EB5
:101F2C00000E046E038E000E046EA5EF0FF0000E73
:101F3C00016E000E026E000E036E000E046E085051
:101F4C00800B0E6E0D500E18D8B4AFEF0FF0B1EF32
:101F5C000FF0B2EF0FF00D8C085008240E6E07AE88
:101F6C00BAEF0FF0BCEF0FF0BDEF0FF00E800E507C
:101F7C00D8B4C3EF0FF0C5EF0FF0DAEF0FF00E2867
:101F8C00D8A4CBEF0FF0CDEF0FF0D5EF0FF0000E84
:101F9C00056E000E066E000E076E000E086E078EA4
:101FAC00000E086EE2EF0FF0000E056E000E066ECE
:101FBC00000E076E000E086E0F500E5CD8B0E9EFE5
:101FCC000FF0EBEF0FF012EF10F00DACF0EF0FF095
:101FDC00F2EF0FF0F4EF0FF0800E0D1A0FC010F0AF
:101FEC000EC00FF010C00EF001C010F005C001F0D3
:101FFC0010C005F002C010F006C002F010C006F0D0
:10200C0003C010F007C003F010C007F004C010F0BC
:10201C0008C004F010C008F0000E106E0F500EC077
:10202C0009F00A6A095E000E0A5A0ABE27EF10F080
:10203C000A5009E11A0E095CD8A027EF10F029EF1D
:10204C0010F060EF10F00150021003100410D8A42F
:10205C0032EF10F035EF10F0010E36EF10F0000EED
:10206C00106E000E016E000E026E000E036E000E5E
:10207C00046E0EC00FF069EF10F010A048EF10F0D6
:10208C004AEF10F050EF10F0D89010300109106E9C
:10209C0052EF10F0D890103201A057EF10F059EF1A
:1020AC0010F05AEF10F0108E043404320332023266
:1020BC0001320F2A0E500F5CD8A067EF10F069EFB9
:1020CC0010F043EF10F00DBC6EEF10F070EF10F04D
:1020DC00B0EF10F00F50D8A476EF10F078EF10F0AE
:1020EC0082EF10F0000E016E000E026E000E036EF9
:1020FC00000E046ED1EF11F005500126065002229D
:10210C00075003220850042204A08FEF10F091EF27
:10211C0010F03DEF11F010A096EF10F098EF10F0CA
:10212C009EEF10F0D89010300109106EA0EF10F057
:10213C00D890103201A0A5EF10F0A7EF10F0A8EF87
:10214C0010F0108E043404320332023201320F2AA2
:10215C003DEF11F00550015C065002580750035832
:10216C000450800A096E0850800A0958D8B0C1EF93
:10217C0010F0C3EF10F0EEEF10F00150055C096E9B
:10218C00025006580A6E035007580B6E045008583C
:10219C000C6EFF0E0924016EFF0E0A20026EFF0E5C
:1021AC000B20036EFF0E0C20046E800E0D1A106CAB
:1021BC001050D8A4E4EF10F0E6EF10F0F6EF10F0AA
:1021CC00010E0126000E022203220422F6EF10F06B
:1021DC000550015E0650025A0750035A0850045A23
:1021EC000150021003100410D8A4FFEF10F001EFFF
:1021FC0011F036EF11F01050D8A407EF11F009EFE1
:10220C0011F036EF11F0000E016E000E026E000E92
:10221C00036E000E046ED1EF11F0D8900136023629
:10222C000336043610AE1DEF11F01FEF11F020EF46
:10223C0011F0018010A025EF11F027EF11F02BEF1A
:10224C0011F0D88010362DEF11F0D89010360F50B9
:10225C00D8B433EF11F035EF11F036EF11F00F0663
:10226C0003AE3BEF11F03DEF11F013EF11F0000E48
:10227C000E6E10AE44EF11F046EF11F05EEF11F060
:10228C0010C009F07F0E0916D8B44FEF11F051EFC2
:10229C0011F055EF11F0010E0E6E5EEF11F001A072
:1022AC005AEF11F05CEF11F05EEF11F051EF11F0FD
:1022BC000E50D8B464EF11F066EF11F091EF11F0FD
:1022CC00010E0126000E02220322042204A071EF4B
:1022DC0011F073EF11F091EF11F001C009F002C091
:1022EC000AF003C00BF004C00CF00C340C320B32AF
:1022FC000A32093209C001F00AC002F00BC003F027
:10230C000CC004F00F28D8B48EEF11F090EF11F040
:10231C0091EF11F00F2A0F28D8B497EF11F099EF25
:10232C0011F0A1EF11F00F50D8A49FEF11F0A1EF15
:10233C0011F0B3EF11F0000E016E000E026E000EE4
:10234C00036E000E046E0F50D8A4AFEF11F0B1EF76
:10235C0011F0B3EF11F0000E0D6E0FA0B8EF11F0ED
:10236C00BAEF11F0BDEF11F0038EBEEF11F0039E2A
:10237C00D8900F30046E0DAEC6EF11F0C8EF11F00F
:10238C00C9EF11F0048E01C001F002C002F003C0CD
:10239C0003F004C004F012002850800B316E28505A
:1023AC002824376E27AEDDEF11F0DFEF11F0E0EFF0
:1023BC0011F037803750D8B4E6EF11F0E8EF11F098
:1023CC00FBEF11F03728D8A4EEEF11F0F0EF11F07D
:1023DC00F8EF11F0000E256E000E266E000E276E23
:1023EC00000E286E278E03EF12F0000E256E000EE5
:1023FC00266E000E276E000E286E2C50800B311AA4
:10240C002C502C24366E2BAE0EEF12F010EF12F077
:10241C0011EF12F036803650D8B417EF12F019EFD6
:10242C0012F02CEF12F03628D8A41FEF12F021EF87
:10243C0012F029EF12F0000E296E000E2A6E000E1B
:10244C002B6E000E2C6E2B8E34EF12F0000E296EBC
:10245C00000E2A6E000E2B6E000E2C6E3650D8B469
:10246C003AEF12F03CEF12F044EF12F03750D8A4D0
:10247C0042EF12F044EF12F04EEF12F0000E256E08
:10248C00000E266E000E276E000E286EE6EF13F07F
:10249C002B502502F3CF3CF0F4CF3DF03C50326E84
:1024AC00336A346A356A3D50386E396A3A6A3B6A27
:1024BC002A502602F3CF3CF0F4CF3DF03C503226AC
:1024CC00000E3322342235223D503826000E39229C
:1024DC003A223B2229502702F3CF3CF0F4CF3DF0B7
:1024EC003C503226000E3322342235223D50382601
:1024FC00000E39223A223B2234C035F033C034F07E
:10250C0032C033F0326A29502602F3CF3CF0F4CFBC
:10251C003DF03C5032263D503322000E3422000E4A
:10252C0035222A502502F3CF3CF0F4CF3DF03C503D
:10253C0032263D503322000E3422000E352234C098
:10254C0035F033C034F032C033F0326A29502502F2
:10255C00F3CF3CF0F4CF3DF03C5032263D503322CB
:10256C00000E3422000E35222B502602F3CF3CF005
:10257C00F4CF3DF03C5038263D503922000E3A2223
:10258C00000E3B222A502702F3CF3CF0F4CF3DF053
:10259C003C5038263D503922000E3A22000E3B2288
:1025AC002B502702F3CF3CF0F4CF3DF03C502D6E76
:1025BC003D502E6E2F6A306A2FC030F02EC02FF097
:1025CC002DC02EF02D6A2D5038262E5039222F502A
:1025DC003A2230503B2232C02DF033C02EF034C0A2
:1025EC002FF035C030F0190E01EF13F0D8903032C7
:1025FC002F322E322D32E82EFCEF12F02D503826D1
:10260C002E5039222F503A2230503B2234C035F014
:10261C0033C034F032C033F0326A365037C02DF04C
:10262C002E6A2D26000E2E22820E2D243C6EFF0EBD
:10263C002E203D6E37EF13F0D890383639363A36B7
:10264C003B3635AE2CEF13F02EEF13F02FEF13F0CB
:10265C003880D89032363336343635363C06D8A0EE
:10266C003D063AAE3CEF13F03EEF13F022EF13F0C1
:10267C00000E366E35AE45EF13F047EF13F06BEFEF
:10268C0013F0FF0E32142D6EFF0E33142E6EFF0E50
:10269C0034142F6E7F0E3514306E2D502E102F10DB
:1026AC003010D8B45CEF13F05EEF13F062EF13F060
:1026BC00010E366E6BEF13F038A067EF13F069EF75
:1026CC0013F06BEF13F05EEF13F03650D8B471EFDC
:1026DC0013F073EF13F097EF13F0010E3826000E82
:1026EC0039223A223B223BA07EEF13F080EF13F00D
:1026FC0097EF13F038C02DF039C02EF03AC02FF000
:10270C003BC030F0303430322F322E322D322DC0CF
:10271C0038F02EC039F02FC03AF030C03BF03C4AB4
:10272C003D2A3DBEA2EF13F03D5008E13C28D8A055
:10273C00A2EF13F0A4EF13F0AEEF13F0000E386E0F
:10274C00000E396E800E3A6E7F0E3B6EDCEF13F08E
:10275C003DBEBBEF13F03D5006E13C04D8B0B9EFE1
:10276C0013F0BBEF13F0C7EF13F0000E386E000E32
:10277C00396E000E3A6E000E3B6E000E316EDCEFC1
:10278C0013F03CC037F0FF0E3816FF0E39167F0ED3
:10279C003A16000E3B1637A0D6EF13F0D8EF13F015
:1027AC00D9EF13F03A8ED89037303B6E31503B1244
:1027BC0038C025F039C026F03AC027F03BC028F0CD
:1027CC0012001450800B216E14501424286E13AE7A
:1027DC00F2EF13F0F4EF13F0F5EF13F0288028501C
:1027EC00D8B4FBEF13F0FDEF13F012EF14F0282820
:1027FC00D8A403EF14F005EF14F00DEF14F0000E55
:10280C00116E000E126E000E136E000E146E138EEF
:10281C00000E146E1AEF14F0000E116E000E126EF4
:10282C00000E136E000E146E1850800B211A1850E7
:10283C001824296E17AE25EF14F027EF14F028EFAB
:10284C0014F029802950D8B42EEF14F030EF14F086
:10285C0045EF14F02928D8A436EF14F038EF14F013
:10286C0040EF14F0000E156E000E166E000E176E73
:10287C00000E186E178E000E186E4DEF14F0000E31
:10288C00156E000E166E000E176E000E186E15509B
:10289C00161017101810D8A456EF14F058EF14F0A7
:1028AC0070EF14F0000E116E000E126E000E136E0F
:1028BC00000E146E800E13127F0E1412215014127F
:1028CC0011C011F012C012F013C013F014C014F0A8
:1028DC00B3EF15F02850D8A476EF14F078EF14F07D
:1028EC0082EF14F0000E116E000E126E000E136EBD
:1028FC00000E146EB3EF15F0295028C019F01A6AA7
:10290C00195E000E1A5A7F0E1924226E000E1A2020
:10291C00236E11C01DF012C01EF013C01FF014C0A6
:10292C0020F0000E116E000E126E000E136E000ED3
:10293C00146E000E246E000E256E000E266E000E18
:10294C00276E000E296EE3EF14F02950D8B4B1EFC6
:10295C0014F0B3EF14F0CAEF14F0D8901D361E36F5
:10296C001F362036D890113612361336143627AE51
:10297C00C2EF14F0C4EF14F0C5EF14F01180D8902E
:10298C00243625362636273615501D5C16501E5813
:10299C0017501F5818502058D8A0D7EF14F0D9EF63
:1029AC0014F0E2EF14F0278C15501D5E16501E5AD1
:1029BC0017501F5A1850205A292A190E2964E9EF6A
:1029CC0014F0EBEF14F0ABEF14F01D501E101F10B1
:1029DC002010D8B4F4EF14F0F6EF14F00EEF15F05D
:1029EC0024800EEF15F0D8901136123613361436AB
:1029FC0027AE03EF15F005EF15F006EF15F011807B
:102A0C00D89024362536263627362206D8A023061B
:102A1C0013AE13EF15F015EF15F0F9EF14F0000EDF
:102A2C00296E27AE1CEF15F01EEF15F042EF15F0D6
:102A3C00FF0E2414196EFF0E25141A6EFF0E2614A9
:102A4C001B6E7F0E27141C6E19501A101B101C10B5
:102A5C00D8B433EF15F035EF15F039EF15F0010E52
:102A6C00296E42EF15F011A03EEF15F040EF15F076
:102A7C0042EF15F035EF15F02950D8B448EF15F0AA
:102A8C004AEF15F06EEF15F0010E1126000E122212
:102A9C001322142214A055EF15F057EF15F06EEF1A
:102AAC0015F011C019F012C01AF013C01BF014C0AD
:102ABC001CF01C341C321B321A32193219C011F0A2
:102ACC001AC012F01BC013F01CC014F0224A232AA7
:102ADC0023BE79EF15F0235008E12228D8A079EF16
:102AEC0015F07BEF15F086EF15F0000E236E2268C3
:102AFC00000E116E000E126E000E136E000E146E90
:102B0C0023BE93EF15F0235006E12204D8B091EFC9
:102B1C0015F093EF15F0A1EF15F0000E236E000EDB
:102B2C00226E000E116E000E126E000E136E000E51
:102B3C00146E000E216E22C028F028A0A8EF15F00C
:102B4C00AAEF15F0ADEF15F0138EAEEF15F0139E46
:102B5C00D8902830146E64EF14F01200E2C03AF0F2
:102B6C00E3C03BF0E4C03CF0E5C03DF02AC03AF0D5
:102B7C002BC03BF02CC03CF02DC03DF0810E2E6ED6
:102B8C00FF0E2F6E3AC030F03BC031F03CC032F03B
:102B9C003DC033F0180ED8EF15F0D89033323232E6
:102BAC0031323032E82ED3EF15F030502E24386EFF
:102BBC00000E2F20396E39BEEDEF15F0395009E1BA
:102BCC00170E385CD8A0EDEF15F0EFEF15F0F9EF1C
:102BDC0015F02AC02AF02BC02BF02CC02CF02DC0E5
:102BEC002DF0BCEF16F039BEFEEF15F000EF16F02D
:102BFC0070EF16F038C02EF0FF0E2F6EFF0E306EF9
:102C0C007F0E316E000E326E2E660FEF16F017EF40
:102C1C0016F032343232313230322F322E2E0AEF5D
:102C2C0016F02FC034F030C035F031C036F032C061
:102C3C0037F034503A142E6E35503B142F6E3650FC
:102C4C003C14306E37503D14316E2E502F10301016
:102C5C003110D8A434EF16F036EF16F038EF16F02A
:102C6C00EFEF15F03AC02EF03BC02FF03CC030F027
:102C7C003DC031F0200E48EF16F0D8903132303292
:102C8C002F322E32E82E43EF16F02E502F1030102C
:102C9C003110D8B454EF16F056EF16F05EEF16F074
:102CAC0034503A2635503B2236503C2237503D2288
:102CBC00341C2E6E351C2F6E361C306E371C316E4C
:102CCC002E503A162F503B1630503C1631503D16B4
:102CDC00B4EF16F03AC02EF03BC02FF03CC030F0F1
:102CEC003DC031F0200E80EF16F0D89031323032EA
:102CFC002F322E32E82E7BEF16F02E502F10301084
:102D0C003110D8A48CEF16F08EEF16F098EF16F069
:102D1C00000E3A6E000E3B6E000E3C6E000E3D6EC9
:102D2C00B4EF16F0D8903A342E6E3B342F6E3C3400
:102D3C00306E3D34316E2E502F1030103110D8B40F
:102D4C00AAEF16F0ACEF16F0B4EF16F0000E3A6ED8
:102D5C00000E3B6E800E3C6EBF0E3D6E3AC02AF0EC
:102D6C003BC02BF03CC02CF03DC02DF01200000EEF
:102D7C00466E000E476E400E486E420E496E8098AD
:102D8C00F28EF28AC60ED56E070ED66E000E956EBA
:102D9C00000E966E000E946E240E826E0F0EC16E97
:102DAC0005EC21F0000ECC6EFA0ECB6E0C0EBD6E47
:102DBC00F00EBE6E9E929494040ECA6EF086F09045
:102DCC00F18A000E126E3C0E116E2DEC21F0000EED
:102DDC00126E0C0E116E2DEC21F047EC21F00C0E46
:102DEC00C16EC282C2B2FDEF16F0FFEF16F0F8EF23
:102DFC0016F0C4500001E16FE06BC350E025FE6F8C
:102E0C00000EE121FF6FFEC011F0FFC012F0000EAA
:102E1C00146E050E136E1AEC21F011C017F012C0CF
:102E2C0018F0000E18BEFF0E196E1A6E010EB4ECDF
:102E3C0017F017C025F018C026F019C027F01AC0DB
:102E4C0028F06F0E296E120E2A6E830E2B6E3A0E20
:102E5C002C6ED2EC11F025C0FAF026C0FBF027C086
:102E6C00FCF028C0FDF0FAC025F0FBC026F0FCC039
:102E7C0027F0FDC028F0000E296E000E2A6EC80E39
:102E8C002B6E420E2C6ED2EC11F025C046F026C0F3
:102E9C0047F027C048F028C049F046C011F047C0A1
:102EAC0012F048C013F049C014F0F9EC19F011C03D
:102EBC00F0F012C0F1F0060E0001E16F130EE06F9E
:102ECC00AD0EE82EFED7E02FFCD7E12FFAD700D0BD
:102EDC00000E956E000E126E800E116E2DEC21F010
:102EEC00350E156E080E166EFCEC1EF0000E126EF2
:102EFC00C00E116E2DEC21F0F20E0001D06F000E01
:102F0C00D16F410ED26F080ED36F46C0D4F047C0BC
:102F1C00D5F048C0D6F049C0D7F0F2EC1FF0F20E55
:102F2C00156E000E166EFCEC1EF0010E156E080EE2
:102F3C00166EFCEC1EF0030E0001E16F8A0EE06FC2
:102F4C00550EE82EFED7E02FFCD7E12FFAD700D094
:102F5C0056EC19F0F5EF16F007EF00F01F6E1F504E
:102F6C00D8B4BBEF17F0BDEF17F0DFEF17F01ABEB8
:102F7C00C4EF17F0C2EF17F0DFEF17F017C01BF01C
:102F8C0018C01CF019C01DF01AC01EF01B1E1C1E10
:102F9C001D1E1E1E1B2A000E1C221D221E221BC0C3
:102FAC0021F01CC022F01DC023F01EC024F0E7EF5E
:102FBC0017F017C021F018C022F019C023F01AC066
:102FCC0024F01750181019101A10D8A4F0EF17F09D
:102FDC00F2EF17F0FCEF17F0000E176E000E186EE4
:102FEC00000E196E000E1A6E8DEF18F0960E206EF4
:102FFC0006EF18F0202AD8902432233222322132C4
:10300C00000E21141B6E000E22141C6E000E2314D5
:10301C001D6EFE0E24141E6E1B501C101D101E1057
:10302C00D8A41BEF18F01DEF18F000EF18F02BEFE1
:10303C0018F0202A010E2126000E222223222422FF
:10304C00D8902432233222322132000E21141B6EEE
:10305C00000E22141C6E000E23141D6EFF0E241481
:10306C001E6E1B501C101D101E10D8A440EF18F023
:10307C0042EF18F01FEF18F04AEF18F02006D89026
:10308C00213622362336243623BE4FEF18F051EF6B
:10309C0018F059EF18F0020E206057EF18F059EFA6
:1030AC0018F044EF18F020B05EEF18F060EF18F055
:1030BC0061EF18F0239ED890203220C01BF01C6AC0
:1030CC001D6A1E6A1BC01EF01D6A1C6A1B6A1B50FF
:1030DC0021121C5022121D5023121E5024121F505C
:1030EC00D8B47BEF18F07DEF18F085EF18F01ABE0E
:1030FC0084EF18F082EF18F085EF18F0248E21C0C1
:10310C0017F022C018F023C019F024C01AF01200D6
:10311C00000E266E000E256E000E1F6E000E1E6E2B
:10312C009AEF18F0184A192A010E246E18C0F6FFEF
:10313C0019C0F7FF0800F550200AD8B4A8EF18F012
:10314C00AAEF18F0C7EF18F0F70E1A6EFF0E1B6EF1
:10315C0018C0F6FF19C0F7FF0800F5501C6E1D6A69
:10316C001A501C261B501D221D5009E1050E1C5C1B
:10317C00D8A0C3EF18F0C5EF18F0C7EF18F0000E89
:10318C00246E24C020F0216A20502110D8A4D1EF45
:10319C0018F0D3EF18F098EF18F0DDEF18F0000EE0
:1031AC001F6E010E1E6E184A192A12EF19F018C064
:1031BC00F6FF19C0F7FF0800F5501A6E1B6A1B507A
:1031CC00000AD8B4ECEF18F012EF19F01A502B0AD1
:1031DC00D8B4D9EF18F0060AD8B4D5EF18F012EF1E
:1031EC0019F025C011F026C012F0000E146E0A0E54
:1031FC00136E1AEC21F018C0F6FF19C0F7FF080087
:10320C00F550115E000E125A300E1124256E000E70
:10321C001220266ED9EF18F0D00E1A6EFF0E1B6E10
:10322C0018C0F6FF19C0F7FF0800F5501C6E1D6A98
:10323C001A501C261B501D221D500AE10A0E1C5C44
:10324C00D8A02BEF19F02EEF19F0010E2FEF19F07B
:10325C00000E226E236A22502310D8A438EF19F0E6
:10326C003AEF19F0F7EF18F01E501F10D8A441EFE9
:10327C0019F043EF19F051EF19F025C01AF026C0E0
:10328C001BF01A1E1B1E1A4A1B2A1AC018F01BC050
:10329C0019F055EF19F025C018F026C019F01200DE
:1032AC00000E0001606F000E616F700E626F420EB7
:1032BC00636F46C064F047C065F048C066F049C013
:1032CC0067F07CEC1AF00001D8B06FEF19F071EFD9
:1032DC0019F0A7EF19F047EC21F0060E00016D6F05
:1032EC00130E6C6FAD0EE82EFED76C2FFCD76D2F26
:1032FC00FAD700D0000E126E800E116E2DEC21F05C
:10330C00290E156E080E166EFCEC1EF0000E126ED9
:10331C00C00E116E2DEC21F01D0E156E080E166EE2
:10332C00FCEC1EF0060E00016D6F130E6C6FAD0EF3
:10333C00E82EFED76C2FFCD76D2FFAD700D047ECB8
:10334C0021F046C060F047C061F048C062F049C04F
:10335C0063F0000E0001646F000E656F2C0E666F3B
:10336C00420E676F7CEC1AF00001D8B0C0EF19F078
:10337C00C2EF19F0F8EF19F047EC21F0060E00013E
:10338C006D6F130E6C6FAD0EE82EFED76C2FFCD745
:10339C006D2FFAD700D0000E126E800E116E2DEC30
:1033AC0021F0100E156E080E166EFCEC1EF0000EC1
:1033BC00126EC00E116E2DEC21F01D0E156E080E46
:1033CC00166EFCEC1EF0060E00016D6F130E6C6F8A
:1033DC00AD0EE82EFED76C2FFCD76D2FFAD700D090
:1033EC0047EC21F01200133414341A6E1A50D8A47E
:1033FC0002EF1AF004EF1AF00EEF1AF0000E116E35
:10340C00000E126E000E136E000E146E7BEF1AF08F
:10341C0011C015F012C016F013C017F014C018F03C
:10342C00200E1EEF1AF0D8901832173216321532C1
:10343C00E82E19EF1AF01550196E138EFF0E111697
:10344C00FF0E1216FF0E1316000E1416960E1A5EB1
:10345C001ABE35EF1AF033EF1AF04BEF1AF01A5080
:10346C00800A970FD8B03DEF1AF03FEF1AF041EFFA
:10347C001AF004EF1AF0D8901432133212321132BF
:10348C001A3E41EF1AF063EF1AF01F0E1A6451EF57
:10349C001AF053EF1AF05BEF1AF004EF1AF0D89011
:1034AC0011361236133614361A061A50D8A461EF98
:1034BC001AF063EF1AF055EF1AF01950D8B469EFFF
:1034CC001AF06BEF1AF073EF1AF0141E131E121E83
:1034DC00116C000E12221322142211C011F012C012
:1034EC0012F013C013F014C014F01200000E0001FF
:1034FC006015686F000E6115696F800E62156A6F3A
:10350C007F0E63156B6F685169116A116B11D8A42A
:10351C0092EF1AF094EF1AF09CEF1AF0000E606F15
:10352C00000E616F000E626F000E636F000E64156B
:10353C00686F000E6515696F800E66156A6F7F0ED9
:10354C0067156B6F685169116A116B11D8A4B1EFD3
:10355C001AF0B3EF1AF0BBEF1AF0000E646F000E06
:10356C00656F000E666F000E676F63AFC0EF1AF0E9
:10357C00C2EF1AF0CBEF1AF0606D611FD8B0612B5F
:10358C00621FD8B0622B800E635767AFD0EF1AF072
:10359C00D2EF1AF0DBEF1AF0646D651FD8B0652B13
:1035AC00661FD8B0662B800E6757000E601B000E8E
:1035BC00611B000E621B800E631B000E641B000E51
:1035CC00651B000E661B800E671B6451605D6551A8
:1035DC0061596651625967516359D8B0F8EF1AF0C6
:1035EC00FAEF1AF0FDEF1AF0D890FEEF1AF0D8802F
:1035FC001200000E0114096E000E02140A6E800EE9
:10360C0003140B6E7F0E04140C6E09500A100B1071
:10361C000C10D8A414EF1BF016EF1BF01EEF1BF0D0
:10362C00000E016E000E026E000E036E000E046E94
:10363C00000E0514096E000E06140A6E800E071497
:10364C000B6E7F0E08140C6E09500A100B100C1028
:10365C00D8A433EF1BF035EF1BF03DEF1BF0000E41
:10366C00056E000E066E000E076E000E086E04AEA0
:10367C0042EF1BF044EF1BF04DEF1BF0016C021EF0
:10368C00D8B0022A031ED8B0032A800E045608AE06
:10369C0052EF1BF054EF1BF05DEF1BF0056C061E98
:1036AC00D8B0062A071ED8B0072A800E0856000E7E
:1036BC00011A000E021A000E031A800E041A000ED4
:1036CC00051A000E061A000E071A800E081A05506D
:1036DC00015C065002580750035808500458D8B0E3
:1036EC007AEF1BF07CEF1BF07FEF1BF0D89080EF94
:1036FC001BF0D88012003EC01BF03FC01CF040C035
:10370C001DF041C01EF011C01BF012C01CF013C004
:10371C001DF014C01EF01BC015F01CC016F01DC00F
:10372C0017F01EC018F0180EA1EF1BF0D89018322D
:10373C00173216321532E82E9CEF1BF01550196E0D
:10374C001A6A19501A10D8A4AEEF1BF0B0EF1BF088
:10375C00D0EF1BF0D8901B34156E1C34166E1D3434
:10376C00176E1E34186E1550161017101810D8A49A
:10377C00C2EF1BF0C4EF1BF0CAEF1BF0000E126E71
:10378C00020E116EFFEF1BF0000E126E030E116E87
:10379C00FFEF1BF019281A10D8A4D7EF1BF0D9EFA4
:1037AC001BF0FBEF1BF01BC015F01CC016F01DC06E
:1037BC0017F01EC018F0090ED890153616361736AD
:1037CC001836E82EE2EF1BF01550161017101810D3
:1037DC00D8B4F3EF1BF0F6EF1BF0010EF7EF1BF074
:1037EC00000E116E126AFFEF1BF0000E126E040E2B
:1037FC00116E120011C018F012C019F013C01AF09B
:10380C0014C01BF01506D8A01606152806E11628BC
:10381C00D8A413EF1CF015EF1CF022EF1CF0000ED7
:10382C00126E000E116E6AEF1CF0184A192A1A4A11
:10383C001B2A1506D8A0160618C0D9FF19C0DAFF26
:10384C00DF50D8B42CEF1CF02EEF1CF059EF1CF00D
:10385C001AC0F6FF1BC0F7FF0800F5500009D8B4DA
:10386C003AEF1CF03CEF1CF059EF1CF01550161001
:10387C00D8B443EF1CF045EF1CF059EF1CF018C006
:10388C00D9FF19C0DAFFDF50176E1AC0F6FF1BC044
:10389C00F7FF0800F5501718D8B457EF1CF059EF84
:1038AC001CF01BEF1CF018C0D9FF19C0DAFFDF5059
:1038BC00176E1AC0F6FF1BC0F7FF0800F550175C17
:1038CC00116E126AD8A01206120013501410D8B43C
:1038DC0072EF1CF074EF1CF07DEF1CF01350141001
:1038EC00D8A47BEF1CF07DEF1CF082EF1CF0115084
:1038FC0050EC21F0CFEF1CF020EE04F01350D92641
:10390C001450DA22DE50DE10D8B48FEF1CF091EF99
:10391C001CF0ACEF1CF020EE04F01350D926145020
:10392C00DA2210EE02F01350E1261450E222DE509F
:10393C00E65CE650800A196EDE50800A1958D8B041
:10394C00AAEF1CF0ACEF1CF0CFEF1CF020EE02F055
:10395C001350D9261450DA22DECF15F0DDCF16F035
:10396C0013C0D9FF14C0DAFFDECF17F0DDCF18F08B
:10397C0015501724D96E16501820DA6E11C0DFFFBF
:10398C0020EE02F01350D9261450DA22DE2A000E53
:10399C00DD2212000600F0A0D6EF1CF0D8EF1CF0D0
:1039AC000CEF1DF0F09046C001F047C002F048C08B
:1039BC0003F049C004F0000E056E000E066EA00E5A
:1039CC00076E410E086EFFEC1AF0D8A0F0EF1CF059
:1039DC00F2EF1CF00CEF1DF046C001F047C002F0F6
:1039EC0048C003F049C004F0000E056E000E066ED0
:1039FC00200E076EC10E086E72EC0FF001C046F07F
:103A0C0002C047F003C048F004C049F0F2AA11EF1D
:103A1C001DF013EF1DF033EF1DF0F2A418EF1DF0A5
:103A2C001AEF1DF033EF1DF0444A452A45BE28EF2E
:103A3C001DF0455009E1080E445CD8A028EF1DF09C
:103A4C002AEF1DF030EF1DF050EC1EF0000E456E0D
:103A5C00000E446E070ED66EF2944E921100000EBC
:103A6C00166E14BE3EEF1DF03CEF1DF044EF1DF042
:103A7C00136C141ED8B0142A010E166E12BE4BEF26
:103A8C001DF049EF1DF051EF1DF0116C121ED8B056
:103A9C00122A010E161A000E186E000E176E135015
:103AAC001410D8B45CEF1DF05EEF1DF086EF1DF026
:103ABC00010E156E66EF1DF0D89013361436152ACC
:103ACC0014AE6BEF1DF06DEF1DF062EF1DF0D89092
:103ADC00173618361350115C14501258D8A079EFC1
:103AEC001DF07BEF1DF080EF1DF01350115E145094
:103AFC00125A1780D89014321332152E6DEF1DF018
:103B0C001650D8B48CEF1DF08EEF1DF092EF1DF017
:103B1C00176C181ED8B0182A17C011F018C012F064
:103B2C00120042A09CEF1DF09EEF1DF0A8EF1DF0BF
:103B3C0023C01AF024C01BF021C01CF022C01DF0C1
:103B4C008FEC20F026BEADEF1DF0AFEF1DF0B5EF02
:103B5C001DF025C02AF026C02BF0B9EF1DF0000E89
:103B6C002B6E000E2A6E000E296E000E286ECBEF07
:103B7C001DF0000E126E200E116E21C013F022C02B
:103B8C0014F06BEC1CF0284A292A2A50285C295086
:103B9C00800A276E2B50800A2758D8A0D8EF1DF02A
:103BAC00DAEF1DF0BFEF1DF042B0DFEF1DF0E1EFDB
:103BBC001DF0EBEF1DF023C01AF024C01BF021C048
:103BCC001CF022C01DF08FEC20F023C011F024C09B
:103BDC0012F044EC20F02A501124216E2B501220AC
:103BEC00226E1200000E166E12BE01EF1EF0FFEFD9
:103BFC001DF007EF1EF0116C121ED8B0122A010E28
:103C0C00166E14BE0EEF1EF00CEF1EF012EF1EF02F
:103C1C00136C141ED8B0142A13501410D8B419EF06
:103C2C001EF01BEF1EF03FEF1EF0010E156E23EF82
:103C3C001EF0D89013361436152A14AE28EF1EF049
:103C4C002AEF1EF01FEF1EF01350115C1450125887
:103C5C00D8A033EF1EF035EF1EF039EF1EF01350E5
:103C6C00115E1450125AD89014321332152E2AEFBA
:103C7C001EF01650D8B445EF1EF047EF1EF04BEF78
:103C8C001EF0116C121ED8B0122A11C011F012C005
:103C9C0012F0120046C001F047C002F048C003F019
:103CAC0049C004F0000E056E000E066E480E076E3D
:103CBC00420E086EFFEC1AF0D8B067EF1EF069EFF9
:103CCC001EF06CEF1EF0BE50E20FBE6E000E016EC9
:103CDC00000E026E700E036E420E046E46C005F0AE
:103CEC0047C006F048C007F049C008F0FFEC1AF0D6
:103CFC00D8B083EF1EF085EF1EF08AEF1EF0BE5099
:103D0C00500FBE6EA6EF1EF046C001F047C002F089
:103D1C0048C003F049C004F0000E056E000E066E9C
:103D2C005C0E076E420E086EFFEC1AF0D8A0A1EFE5
:103D3C001EF0A3EF1EF0A6EF1EF0BE50050FBE6ED8
:103D4C001200000E1114196E000E12141A6E800E51
:103D5C0013141B6E7F0E14141C6E19501A101B10AA
:103D6C001C10D8A4BCEF1EF0BEEF1EF0C6EF1EF068
:103D7C00000E116E000E126E000E136E000E146EFD
:103D8C00000E1514196E000E16141A6E800E1714F0
:103D9C001B6E7F0E18141C6E19501A101B101C1061
:103DAC00D8A4DBEF1EF0DDEF1EF0E5EF1EF0000EE9
:103DBC00156E000E166E000E176E000E186E155056
:103DCC0011180FE1165012180CE11750131809E1D5
:103DDC0018501418D8B4F5EF1EF0F7EF1EF0FAEFE8
:103DEC001EF0D890FBEF1EF0D8801200000E1D6E56
:103DFC00000E1C6E15C011F016C012F044EC20F031
:103E0C0011C01AF012C01BF02AEF1FF01C50152421
:103E1C00176E1D501620186E17C0F6FF18C0F7FF4E
:103E2C00F86A070EF76403D00800F55005D0F6CFFA
:103E3C00E1FFF7CFE2FFE750196E1950116E126ACD
:103E4C003AEC21F01C4A1D2A1A501C5C1D50800AA9
:103E5C00176E1B50800A1758D8A037EF1FF039EF98
:103E6C001FF00CEF1FF01200CAC0CEF0CBC0CFF089
:103E7C00000E0001EB6F000EEA6F58EF1FF0C8C088
:103E8C00B0F0C9C0B1F0CE0EB26F000EB36FCCC0A3
:103E9C00B4F0CDC0B5F05CEC0AF00001B051EA27EB
:103EAC00B151EB23CEC0F6FFCFC0F7FF0800F550A1
:103EBC000009D8A464EF1FF066EF1FF045EF1FF068
:103ECC00EAC0C8F0EBC0C9F01200BF0E196EFF0EAD
:103EDC001A6E17C01BF018C01CF019501B261A5074
:103EEC001C221C500AE11A0E1B5CD8A080EF1FF09C
:103EFC0083EF1FF0010E84EF1FF0000E1D6E1E6A83
:103F0C001D501E10D8B48DEF1FF08FEF1FF096EFE1
:103F1C001FF0200E1710176E1850186E9AEF1FF026
:103F2C0017C017F018C018F0120013C017F014C007
:103F3C0018F011C019F012C01AF01750156E185065
:103F4C00166E174A182A15C0F6FF16C0F7FFF86A46
:103F5C0019C0D9FF1AC0DAFF194A1A2A070EF764DA
:103F6C0003D00800F55005D0F6CFE1FFF7CFE2FF04
:103F7C00E750DF6EDF50D8A4C6EF1FF0C8EF1FF07C
:103F8C00A3EF1FF012009C0EF66E420EF76E000EA1
:103F9C00F86E00EE4AF010EE04F00900F5CFEEFFDB
:103FAC00E550E150FAE101EE00F0500EEE6AE80641
:103FBC00FDE100EEE2F01E0EEE6AE806FDE100EE19
:103FCC003EF0080EEE6AE806FDE14E904E92000EB1
:103FDC00F86E0001BDEF16F0D40E0001D86F000E84
:103FEC00D96FD0C0DAF0D1C0DBF0000EDD6F000E5F
:103FFC00DC6F000EDF6F000EDE6FDA0EC86F000E86
:10400C00C96FD2C0CAF0D3C0CBF0D80ECC6F000EA3
:10401C00CD6F3AEC1FF00001DC51D025D96EDD518B
:10402C00D121DA6E000EDF6E1200010E176E200E1B
:10403C0011181210D8B425EF20F027EF20F040EF24
:10404C0020F0F70E136EFF0E146E11C015F012C097
:10405C0016F01350152614501622165009E1050EB1
:10406C00155CD8A03CEF20F03EEF20F040EF20F0A4
:10407C00000E176E17C011F0126A120011C013F067
:10408C0012C014F04CEF20F0114A122A11C0F6FFA6
:10409C0012C0F7FFF86A070EF76403D00800F5505A
:1040AC0005D0F6CFE1FFF7CFE2FFE7500009D8A427
:1040BC0062EF20F064EF20F04AEF20F01350115C17
:1040CC00116E14501258126E1200000E0001641B77
:1040DC00000E651B000E661B800E671B60C011F086
:1040EC0061C012F062C013F063C014F064C015F02C
:1040FC0065C016F066C017F067C018F012EC0DF032
:10410C0011C060F012C061F013C062F014C063F013
:10411C001200000E206E000E1F6EA0EF20F01EC0CD
:10412C0011F0126A1CC013F01DC014F06BEC1CF0E3
:10413C001F4A202A1F501A24D96E20501B20DA6ED9
:10414C00DF501E6E1E50D8A4AEEF20F0B0EF20F062
:10415C0095EF20F01200BF0E136EFF0E146E11C0FF
:10416C0015F012C016F013501526145016221650C6
:10417C000AE11A0E155CD8A0C6EF20F0C9EF20F0AA
:10418C00010ECAEF20F0000E116E126A12001150CF
:10419C00121013101410D8B4D6EF20F0D8EF20F072
:1041AC00E0EF20F0000E111A000E121A000E131A76
:1041BC00800E141A11C011F012C012F013C013F0BB
:1041CC0014C014F01200D00E136EFF0E146E11C03A
:1041DC0015F012C016F01350152614501622165056
:1041EC000AE10A0E155CD8A0FEEF20F001EF21F0D9
:1041FC00010E02EF21F0000E116E126A1200070E72
:10420C00926E0C0EC16EC050F80B0609C06EC050F9
:10421C00C70B2009C06EC08E000EC26EC250C30BFD
:10422C000809C26EC280120011501302F3CF15F0B0
:10423C00F4CF16F011501402F3501626125013023C
:10424C00F350162615C011F016C012F0120084940B
:10425C00848211C083FF030E136E980EE82EFED7D6
:10426C00132EFCD7849212008484848211C083FFA5
:10427C00030E136E980EE82EFED7132EFCD78492E5
:10428C001200000E126E010E116E2DEC21F01200B8
:06429C002B003C001200A3
:020000040020DA
:08000000FFFFFFFFFFFFFFFF00
:020000040030CA
:0E000000000C1F1EFF8385FF0FC00FE00F4096
:00000001FF
