:0400000007EF00F016
:0A0008005282FAED1AF029EF1DF004
:10080000002067726175732043656C7369757300AE
:1008100074656D70657261747572610025332E3276
:100820006600494E46004E414E00696E66006E619C
:100830006E006C660000000E0001876F000E866F70
:1008400062C098F063C099F064C09AF065C09BF0F4
:100850009BBF2FEF04F02DEF04F045EF04F0000EE6
:10086000876F010E866F98C00DF099C00EF09AC088
:100870000FF09BC010F0F1EC1CF00DC098F00EC012
:1008800099F00FC09AF010C09BF0000E00019F6F0E
:10089000000E9E6F4CC08AF04DC08BF086518711C0
:1008A000D8A455EF04F057EF04F05EEF04F050A425
:1008B0005CEF04F05EEF04F078EF04F086518711EE
:1008C000D8A465EF04F067EF04F06DEF04F0000EBC
:1008D0006D6F2B0E6C6F71EF04F0000E6D6F2D0EAF
:1008E0006C6F6CC000F19E4B9F2B8A07D8A08B07C2
:1008F00098C00DF099C00EF09AC00FF09BC010F098
:100900003BEC18F00D040E10D8A489EF04F08BEF27
:1009100004F0E2EF04F0BF0E0001676FFF0E686F96
:100920006651696F6A6B6751692768516A236A511A
:100930000AE11A0E695DD8A0A0EF04F0A3EF04F05D
:10094000010EA4EF04F0000E6E6F6F6B6E516F110D
:10095000D8B4ADEF04F0AFEF04F0BDEF04F0000E3B
:100960009E250D6E010E9F210E6E220E0F6E080E3B
:10097000106EE9EC1BF0C9EF04F0000E9E250D6E21
:10098000010E9F210E6E2A0E0F6E080E106EE9ECFE
:100990001BF00001FD0E8A27FF0E8B2360C01DF0A7
:1009A00061C01EF0000E1F6E010E206E8AC021F085
:1009B0008BC022F0ECEC19F01DC060F01EC061F09D
:1009C00047EF0AF098C00DF099C00EF09AC00FF0F2
:1009D0009BC010F03BEC18F00D500E10D8A4F3EFB4
:1009E00004F0F5EF04F035EF05F0BF0E0001676F7E
:1009F000FF0E686F6651696F6A6B675169276851AE
:100A00006A236A510AE11A0E695DD8A00AEF05F05F
:100A10000DEF05F0010E0EEF05F0000E706F716B1B
:100A200070517111D8B417EF05F019EF05F027EFE9
:100A300005F0000E9E250D6E010E9F210E6E260EF6
:100A40000F6E080E106EE9EC1BF0C9EF04F0000EFB
:100A50009E250D6E010E9F210E6E2E0E0F6E080E3E
:100A6000106EE9EC1BF0C9EF04F0000E0001A06F5E
:100A7000000EA16F800EA26F3F0EA36F000E9D6F40
:100A8000000E9C6F98C00DF099C00EF09AC00FF048
:100A90009BC010F0000E116E000E126E000E136E51
:100AA000000E146EA5EC1AF0D8B059EF05F05BEF0C
:100AB00005F0DEEF05F07AEF05F0A0C021F0A1C04F
:100AC00022F0A2C023F0A3C024F0000E256E000E79
:100AD000266E200E276E410E286E5DEC0FF021C0B1
:100AE000A0F022C0A1F023C0A2F024C0A3F0000116
:100AF0009C4B9D2B98C03AF099C03BF09AC03CF0BB
:100B00009BC03DF0000E256E000E266E200E276E57
:100B1000410E286EA0C021F0A1C022F0A2C023F097
:100B2000A3C024F05DEC0FF021C03EF022C03FF0E6
:100B300023C040F024C041F037EC17F0D8B0A3EF49
:100B400005F0A5EF05F05DEF05F0C5EF05F0A0C0DD
:100B50000DF0A1C00EF0A2C00FF0A3C010F0000E67
:100B6000116E000E126E200E136E410E146E72EC9A
:100B700011F00DC0A0F00EC0A1F00FC0A2F010C087
:100B8000A3F000019C07D8A09D0798C03AF099C037
:100B90003BF09AC03CF09BC03DF0A0C03EF0A1C02D
:100BA0003FF0A2C040F0A3C041F037EC17F0D8A04E
:100BB000DCEF05F0DEEF05F0A7EF05F066C013F0FF
:100BC000146AB9EC1BF0135000018D6F8DC08CF0CE
:100BD000670E8D19D8A4EFEF05F0F1EF05F017EFD0
:100BE00006F04E504F10D8A4F8EF05F0FAEF05F0DC
:100BF000FEEF05F0000E4F6E010E4E6E4FBE0BEF76
:100C000006F04F5006E14E04D8B009EF06F00BEFA6
:100C100006F011EF06F0000E896F060E886F20EFC8
:100C200006F04EC088F04FC089F020EF06F04FBEAE
:100C30001CEF06F01EEF06F00BEF06F011EF06F0CA
:100C4000670E8D19D8A427EF06F029EF06F058EFAC
:100C500006F09DAF37EF06F0FC0E9C5DFF0E9D5930
:100C6000D8A035EF06F037EF06F056EF06F0FF0E8E
:100C7000676FFF0E686F88C069F089C06AF06751BE
:100C8000692768516A239C51695D6A51800A6B6FBC
:100C90009D51800A6B59D8A050EF06F052EF06F034
:100CA00056EF06F0660E8C6F58EF06F0650E8C6FEF
:100CB00088C07EF089C07FF0670E8D19D8A463EFDD
:100CC00006F065EF06F075EF06F0660E8C19D8A4F5
:100CD0006CEF06F06EEF06F077EF06F09DBF75EF54
:100CE00006F073EF06F077EF06F07E4B7F2B660E73
:100CF0008C19D8A47EEF06F080EF06F0A0EF06F086
:100D00009DBF87EF06F085EF06F093EF06F0000E2B
:100D1000A06F000EA16F800EA26F3F0EA36F000E9A
:100D20009D6F000E9C6F670E8D19D8B49AEF06F078
:100D30009CEF06F0A0EF06F09C517E279D517F238B
:100D4000000E976F000E966F98C08EF099C08FF0CE
:100D50009AC090F09BC091F0A0C080F0A1C081F03B
:100D6000A2C082F0A3C083F031EF07F08EC00DF077
:100D70008FC00EF090C00FF091C010F0A0C011F025
:100D8000A1C012F0A2C013F0A3C014F072EC11F0D5
:100D90000DC026F00EC027F00FC028F010C029F0BB
:100DA0003FEC13F026C092F027C093F028C094F0D7
:100DB00029C095F092C00DF093C00EF094C00FF0D2
:100DC00095C010F0B4EC16F00DC084F00EC085F0A4
:100DD0008EC03AF08FC03BF090C03CF091C03DF027
:100DE000A0C025F0A1C026F0A2C027F0A3C028F023
:100DF00092C021F093C022F094C023F095C024F05B
:100E00005DEC0FF021C03EF022C03FF023C040F067
:100E100024C041F090EC1CF03AC08EF03BC08FF043
:100E20003CC090F03DC091F0A0C00DF0A1C00EF00C
:100E3000A2C00FF0A3C010F0000E116E000E126ED3
:100E4000200E136E410E146E72EC11F00DC0A0F066
:100E50000EC0A1F00FC0A2F010C0A3F00001964B8D
:100E6000972B7E51965D9751800A676F7F51800A5C
:100E70006759D8A03EEF07F040EF07F0B6EF06F055
:100E8000A0C021F0A1C022F0A2C023F0A3C024F092
:100E9000000E256E000E266EA00E276E400E286EE8
:100EA0005DEC0FF021C092F022C093F023C094F0CB
:100EB00024C095F08EC03AF08FC03BF090C03CF05B
:100EC00091C03DF092C03EF093C03FF094C040F01E
:100ED00095C041F037EC17F0D8B071EF07F073EF21
:100EE00007F07EEF07F0000E0001926F000E936F87
:100EF000000E946F000E956FA7EF07F08EC00DF0F7
:100F00008FC00EF090C00FF091C010F092C011F0A1
:100F100093C012F094C013F095C014F0A5EC1AF031
:100F2000D8A095EF07F097EF07F0A7EF07F00001C3
:100F300084B19DEF07F09FEF07F0A7EF07F0000ED9
:100F4000926F000E936F000E946F000E956F98C015
:100F50000DF099C00EF09AC00FF09BC010F092C037
:100F600011F093C012F094C013F095C014F0FDEC92
:100F70000CF00DC08EF00EC08FF00FC090F010C0BE
:100F800091F08EC03AF08FC03BF090C03CF091C021
:100F90003DF0000E256E000E266E200E276E410ECF
:100FA000286E80C021F081C022F082C023F083C06F
:100FB00024F05DEC0FF021C03EF022C03FF023C0D2
:100FC00040F024C041F037EC17F0D8A0EAEF07F06A
:100FD000ECEF07F015EF08F000019C4B9D2B80C053
:100FE00021F081C022F082C023F083C024F0000EE3
:100FF000256E000E266E200E276E410E286E5DECCB
:101000000FF021C080F022C081F023C082F024C004
:1010100083F0660E00018C19D8A411EF08F013EFCD
:1010200008F015EF08F07E4B7F2B80C0A0F081C048
:10103000A1F082C0A2F083C0A3F0650E00018C195C
:10104000D8B425EF08F027EF08F02DEF08F09CC08A
:101050007CF09DC07DF031EF08F0000E7D6F000E3A
:101060007C6F000E7B6F000E7A6F000E796F000EA2
:10107000786F000E976F000E966F2DEF09F08EC0FF
:101080000DF08FC00EF090C00FF091C010F0A0C016
:1010900011F0A1C012F0A2C013F0A3C014F072ECC2
:1010A00011F00DC026F00EC027F00FC028F010C0C0
:1010B00029F03FEC13F026C092F027C093F028C02F
:1010C00094F029C095F092C00DF093C00EF094C03A
:1010D0000FF095C010F0B4EC16F00DC084F00EC007
:1010E00085F050B876EF08F078EF08F096EF08F04A
:1010F000000184518511D8A480EF08F082EF08F038
:1011000096EF08F0670E8D19D8A489EF08F08BEFE1
:1011100008F096EF08F07DBF92EF08F090EF08F02E
:1011200096EF08F0784B792BE1EF08F000017A5147
:101130007B11D8A49EEF08F0A0EF08F0CAEF08F0EA
:101140007DBFA7EF08F0A5EF08F0CAEF08F0000E8A
:101150009E25D96E010E9F21DA6E2E0EDF6E9E4BFC
:101160009F2B8A07D8A08B07000E7B6F010E7A6F2A
:10117000CAEF08F0000E9E25D96E010E9F21DA6E8F
:10118000300EDF6E9E4B9F2B8A07D8A08B07780707
:10119000D8A0790778517911D8A4D1EF08F0D3EF0E
:1011A00008F0BAEF08F0000E9E25D96E010E9F21BF
:1011B000DA6E8451300FDF6E9E4B9F2B8A07D8A0CA
:1011C0008B078EC03AF08FC03BF090C03CF091C0CE
:1011D0003DF0A0C025F0A1C026F0A2C027F0A3C01A
:1011E00028F092C021F093C022F094C023F095C063
:1011F00024F05DEC0FF021C03EF022C03FF023C090
:1012000040F024C041F090EC1CF03AC08EF03BC09E
:101210008FF03CC090F03DC091F0A0C00DF0A1C097
:101220000EF0A2C00FF0A3C010F0000E116E000E61
:10123000126E200E136E410E146E72EC11F00DC082
:10124000A0F00EC0A1F00FC0A2F010C0A3F00001EA
:101250007C07D8A07D07964B972B7E51965D9751C2
:10126000800A676F7F51800A6759D8B03AEF09F05A
:101270003CEF09F04AEF09F09FBF48EF09F09F519A
:1012800009E14B0E9E5DD8A048EF09F04AEF09F046
:101290003FEF08F07A517B11D8A451EF09F053EFDA
:1012A00009F064EF09F050A858EF09F05AEF09F07F
:1012B00064EF09F0000E9E25D96E010E9F21DA6EB3
:1012C0002E0EDF6E9E4B9F2B000E9E25D96E010EBB
:1012D0009F21DA6E000EDF6E650E8C19D8A473EFB5
:1012E00009F075EF09F0CEEF04F0000E976F4F0E86
:1012F000966F000E9625D96E010E9721DA6E000EBC
:10130000DF6E000E876F000E866F9DBF8CEF09F0B9
:101310008AEF09F094EF09F0000E876F010E866FD7
:101320009C6D9D1FD8B09D2B000E896F020E886F9B
:10133000C5EF09F09607D8A09707000E9625D96E3D
:10134000010E9721DA6E9CC00DF09DC00EF0000ECC
:10135000106E0A0E0F6E4DEC1AF00D50300FDF6E4E
:101360009CC00DF09DC00EF0000E106E0A0E0F6EA8
:101370008AEC19F00DC09CF00EC09DF000018807AA
:10138000D8A089078A07D8A08B079C519D11D8A4A3
:10139000CCEF09F0CEEF09F09AEF09F089BFDBEF4F
:1013A00009F0895106E18805D8B0D9EF09F0DBEFE3
:1013B00009F09AEF09F09607D8A097078651871190
:1013C000D8A4E5EF09F0E7EF09F0EDEF09F0000E22
:1013D000736F2B0E726FF1EF09F0000E736F2D0E0D
:1013E000726F000E9625D96E010E9721DA6E72C0CB
:1013F000DFFF8A07D8A08B079607D8A09707BF0EF4
:10140000676FFF0E686F6651696F6A6B6751692776
:1014100068516A236A510AE11A0E695DD8A013EF78
:101420000AF016EF0AF0010E17EF0AF0000E766FC1
:10143000776B76517711D8A420EF0AF022EF0AF0EB
:1014400028EF0AF0000E756F650E746F2CEF0AF02E
:10145000000E756F450E746F000E9625D96E010E45
:101460009721DA6E74C0DFFF8A07D8A08B07000EC1
:101470009E250D6E010E9F210E6E000E96250F6E9D
:10148000010E9721106EE9EC1BF0CEEF04F0120074
:10149000A6C0D9FFA7C0DAFFDECFF6FFDDCFF7FF8A
:1014A0000800F550250AD8A458EF0AF05AEF0AF0C0
:1014B000E1EF0CF0A6C0D9FFA7C0DAFFDE2A000ECC
:1014C000DD22000E4D6E000E4C6E4CC050F04DC033
:1014D00051F04E684F68A6C0D9FFA7C0DAFFDECF33
:1014E000F6FFDDCFF7FF0800F5502A0AD8A47BEFFE
:1014F0000AF07DEF0AF0A6EF0AF0A6C0D9FFA7C058
:10150000DAFFDE2A000EDD22A8C0D9FFA9C0DAFF6B
:10151000DFCFAAF0020EDE26DFCFABF0000EDD2219
:10152000AAC0D9FFABC0DAFFDECF4CF0DDCF4DF063
:101530004DBE9FEF0AF09DEF0AF0EAEF0AF05080EF
:101540004C6C4D1ED8B04D2AEAEF0AF0A6C0D9FF68
:10155000A7C0DAFFDECF14F0DDCF15F0ECEC15F00C
:1015600014C04CF015C04DF0BDEF0AF0A6C0D9FF75
:10157000A7C0DAFFDE2A000EDD22D00E0001AA6F1E
:10158000FF0EAB6FA6C0D9FFA7C0DAFFDECFF6FF14
:10159000DDCFF7FF0800F550AC6FAD6BAA51AC275B
:1015A000AB51AD23AD510AE10A0EAC5DD8A0DBEF23
:1015B0000AF0DEEF0AF0010EDFEF0AF0000EAE6F68
:1015C000AF6BAE51AF11D8A4E8EF0AF0EAEF0AF022
:1015D000B6EF0AF0A6C0D9FFA7C0DAFFDECFF6FF4C
:1015E000DDCFF7FF0800F5502E0AD8A4FAEF0AF075
:1015F000FCEF0AF07AEF0BF0000E4F6E000E4E6E0D
:10160000A6C0D9FFA7C0DAFFDE2A000EDD22A6C0E1
:10161000D9FFA7C0DAFFDECFF6FFDDCFF7FF080066
:10162000F5502A0AD8A417EF0BF019EF0BF036EF9C
:101630000BF0A6C0D9FFA7C0DAFFDE2A000EDD221C
:10164000A8C0D9FFA9C0DAFFDFCFAAF0020EDE26BC
:10165000DFCFABF0000EDD22AAC0D9FFABC0DAFFAE
:10166000DECF4EF0DDCF4FF07AEF0BF0A6C0D9FF02
:10167000A7C0DAFFDECF14F0DDCF15F0ECEC15F0EB
:1016800014C04EF015C04FF04DEF0BF0A6C0D9FFBF
:10169000A7C0DAFFDE2A000EDD22D00E0001AA6FFD
:1016A000FF0EAB6FA6C0D9FFA7C0DAFFDECFF6FFF3
:1016B000DDCFF7FF0800F550AC6FAD6BAA51AC273A
:1016C000AB51AD23AD510AE10A0EAC5DD8A06BEF72
:1016D0000BF06EEF0BF0010E6FEF0BF0000EB06F22
:1016E000B16BB051B111D8A478EF0BF07AEF0BF0D9
:1016F00046EF0BF0A6C0D9FFA7C0DAFFDECFF6FF9A
:10170000DDCFF7FF0800F550136E146AB9EC1BF03B
:1017100013500001B86FB851D8B491EF0BF093EFAC
:101720000BF0CDEF0BF0A6C0D9FFA7C0DAFFDECFDC
:10173000AAF0DDCFABF0010EAA27000EAB23AAC0A2
:10174000F6FFABC0F7FF0800F550136E146AB9EC52
:101750001BF013500001B96FB951D8B4B2EF0BF0C0
:10176000B4EF0BF0CDEF0BF0A6C0D9FFA7C0DAFFA6
:10177000DECFAAF0DDCFABF0020EAA27000EAB231E
:10178000AAC0F6FFABC0F7FF0800F550136E146A4D
:10179000B9EC1BF013500001BA6F660EB819D8A44B
:1017A000D4EF0BF0D6EF0BF016EF0CF0A6C0D9FF7C
:1017B000A7C0DAFFDECFF6FFDDCFF7FF0800F5CFD9
:1017C000BBF0A6C0D9FFA7C0DAFFDE2A000EDD22DB
:1017D000A8C0D9FFA9C0DAFFDFCFAAF0040EDE2629
:1017E000DFCFABF0000EDD22AAC0D9FFABC0DAFF1D
:1017F000DECFB4F0DECFB5F0DECFB6F0DECFB7F09F
:10180000A4C060F0A5C061F0B4C062F0B5C063F0E0
:10181000B6C064F0B7C065F0BBC066F01BEC04F066
:1018200060C0A4F061C0A5F0FCEF0CF0B80E0D6E26
:10183000000E0E6E320E0F6E080E106E000E126E3F
:10184000020E116EBAEC18F00D500E10D8A42BEF4A
:101850000CF02DEF0CF0A9EF0CF0A6C0D9FFA7C03B
:10186000DAFFDECFAAF0DDCFABF0010E0001AA2730
:10187000000EAB23AAC0F6FFABC0F7FF0800F5CF00
:10188000BBF0BF0EAA6FFF0EAB6FA6C0D9FFA7C0FB
:10189000DAFFDECFF6FFDDCFF7FF0800F550AC6FC3
:1018A000AD6BAA51AC27AB51AD23AD510AE11A0E75
:1018B000AC5DD8A05EEF0CF061EF0CF0010E62EFB2
:1018C0000CF0000EB26FB36BB251B311D8B46BEF22
:1018D0000CF06DEF0CF087EF0CF0A8C0D9FFA9C099
:1018E000DAFFDFCFAAF0040EDE26DFCFABF0000E6A
:1018F000DD22AAC0D9FFABC0DAFFDECFB4F0DECF65
:10190000B5F0DECFB6F0DECFB7F09FEF0CF0A8C099
:10191000D9FFA9C0DAFFDFCFAAF0040EDE26DFCFA1
:10192000ABF0000EDD22AAC0D9FFABC0DAFFDECFDC
:10193000B4F0DECFB5F0DECFB6F0DECFB7F0020EFA
:10194000A6C0D9FFA7C0DAFFDE26000EDD2200EF19
:101950000CF0A6C0D9FFA7C0DAFFDECFF6FFDDCFBF
:10196000F7FF0800F550250AD8A4B9EF0CF0BBEF3B
:101970000CF0D3EF0CF0A6C0D9FFA7C0DAFFDE2A27
:10198000000EDD22000E0E6E250E0D6EA4C00FF0AF
:10199000A5C010F025EC19F0000E0001A56F010E96
:1019A000A46FFCEF0CF0A6C0D9FFA7C0DAFFDE2AB7
:1019B000000EDD22000E0001A56F000EA46FFCEFEB
:1019C0000CF0A6C0D9FFA7C0DAFFDECFF6FFDDCF4F
:1019D000F7FF0800F5500D6E0E6AA4C00FF0A5C009
:1019E00010F025EC19F0A6C0D9FFA7C0DAFFDE2A57
:1019F000000EDD22CCEF0CF012001050800B196E9F
:101A0000105010241B6E0FAE08EF0DF00AEF0DF012
:101A10000BEF0DF01B801B50D8B411EF0DF013EF3E
:101A20000DF028EF0DF01B28D8A419EF0DF01BEFD7
:101A30000DF023EF0DF0000E0D6E000E0E6E000E79
:101A40000F6E000E106E0F8E000E106E30EF0DF048
:101A5000000E0D6E000E0E6E000E0F6E000E106E5C
:101A60001450800B1A6E19501A18D8B43AEF0DF0B2
:101A70003CEF0DF03DEF0DF0198C145014241A6E4C
:101A800013AE45EF0DF047EF0DF048EF0DF01A8063
:101A90001A50D8B44EEF0DF050EF0DF065EF0DF089
:101AA0001A28D8A456EF0DF058EF0DF060EF0DF0A6
:101AB000000E116E000E126E000E136E000E146EEC
:101AC000138E000E146E6DEF0DF0000E116E000EF1
:101AD000126E000E136E000E146E1B501A5CD8B0FE
:101AE00074EF0DF076EF0DF09DEF0DF019AC7BEF7C
:101AF0000DF07DEF0DF07FEF0DF0800E191A1BC079
:101B00001CF01AC01BF01CC01AF00DC01CF011C054
:101B10000DF01CC011F00EC01CF012C00EF01CC065
:101B200012F00FC01CF013C00FF01CC013F010C057
:101B30001CF014C010F01CC014F0000E1C6E1B50E2
:101B40001AC015F0166A155E000E165A16BEB2EFD0
:101B50000DF0165009E11A0E155CD8A0B2EF0DF089
:101B6000B4EF0DF0EBEF0DF00D500E100F10101044
:101B7000D8A4BDEF0DF0C0EF0DF0010EC1EF0DF0D8
:101B8000000E1C6E000E0D6E000E0E6E000E0F6E1F
:101B9000000E106E1AC01BF0F4EF0DF01CA0D3EF76
:101BA0000DF0D5EF0DF0DBEF0DF0D8901C300109F2
:101BB0001C6EDDEF0DF0D8901C320DA0E2EF0DF0A1
:101BC000E4EF0DF0E5EF0DF01C8E103410320F3203
:101BD0000E320D321B2A1A501B5CD8A0F2EF0DF00A
:101BE000F4EF0DF0CEEF0DF019BCF9EF0DF0FBEFB7
:101BF0000DF03BEF0EF01B50D8A401EF0EF003EFF9
:101C00000EF00DEF0EF0000E0D6E000E0E6E000EBB
:101C10000F6E000E106E5CEF0FF011500D2612507B
:101C20000E2213500F221450102210A01AEF0EF0A3
:101C30001CEF0EF0C8EF0EF01CA021EF0EF023EF0A
:101C40000EF029EF0EF0D8901C3001091C6E2BEF1E
:101C50000EF0D8901C320DA030EF0EF032EF0EF0E7
:101C600033EF0EF01C8E103410320F320E320D3264
:101C70001B2AC8EF0EF011500D5C12500E58135075
:101C80000F581050800A156E1450800A1558D8B09D
:101C90004CEF0EF04EEF0EF079EF0EF00D50115CA0
:101CA000156E0E501258166E0F501358176E1050B6
:101CB0001458186EFF0E15240D6EFF0E16200E6EB2
:101CC000FF0E17200F6EFF0E1820106E800E191ACF
:101CD0001C6C1C50D8A46FEF0EF071EF0EF081EF6A
:101CE0000EF0010E0D26000E0E220F22102281EFA3
:101CF0000EF011500D5E12500E5A13500F5A145020
:101D0000105A0D500E100F101010D8A48AEF0EF0BC
:101D10008CEF0EF0C1EF0EF01C50D8A492EF0EF035
:101D200094EF0EF0C1EF0EF0000E0D6E000E0E6E71
:101D3000000E0F6E000E106E5CEF0FF0D8900D3697
:101D40000E360F3610361CAEA8EF0EF0AAEF0EF0CE
:101D5000ABEF0EF00D801CA0B0EF0EF0B2EF0EF066
:101D6000B6EF0EF0D8801C36B8EF0EF0D8901C36C7
:101D70001B50D8B4BEEF0EF0C0EF0EF0C1EF0EF066
:101D80001B060FAEC6EF0EF0C8EF0EF09EEF0EF082
:101D9000000E1A6E1CAECFEF0EF0D1EF0EF0E9EF91
:101DA0000EF01CC015F07F0E1516D8B4DAEF0EF049
:101DB000DCEF0EF0E0EF0EF0010E1A6EE9EF0EF020
:101DC0000DA0E5EF0EF0E7EF0EF0E9EF0EF0DCEF1F
:101DD0000EF01A50D8B4EFEF0EF0F1EF0EF01CEF4A
:101DE0000FF0010E0D26000E0E220F22102210A061
:101DF000FCEF0EF0FEEF0EF01CEF0FF00DC015F033
:101E00000EC016F00FC017F010C018F018341832BA
:101E100017321632153215C00DF016C00EF017C06D
:101E20000FF018C010F01B28D8B419EF0FF01BEFFB
:101E30000FF01CEF0FF01B2A1B28D8B422EF0FF075
:101E400024EF0FF02CEF0FF01B50D8A42AEF0FF067
:101E50002CEF0FF03EEF0FF0000E0D6E000E0E6E29
:101E6000000E0F6E000E106E1B50D8A43AEF0FF04C
:101E70003CEF0FF03EEF0FF0000E196E1BA043EF8A
:101E80000FF045EF0FF048EF0FF00F8E49EF0FF016
:101E90000F9ED8901B30106E19AE51EF0FF053EF1C
:101EA0000FF054EF0FF0108E0DC00DF00EC00EF0BD
:101EB0000FC00FF010C010F012002450800B2D6ED8
:101EC00024502424336E23AE68EF0FF06AEF0FF036
:101ED0006BEF0FF033803350D8B471EF0FF073EF26
:101EE0000FF086EF0FF03328D8A479EF0FF07BEFD7
:101EF0000FF083EF0FF0000E216E000E226E000E29
:101F0000236E000E246E238E8EEF0FF0000E216ED6
:101F1000000E226E000E236E000E246E2850800BE1
:101F20002D1A285028242E6E27AE99EF0FF09BEF24
:101F30000FF09CEF0FF02E802E50D8B4A2EF0FF0D0
:101F4000A4EF0FF0B7EF0FF02E28D8A4AAEF0FF0F0
:101F5000ACEF0FF0B4EF0FF0000E256E000E266E02
:101F6000000E276E000E286E278EBFEF0FF0000EBA
:101F7000256E000E266E000E276E000E286E2E5067
:101F8000D8B4C5EF0FF0C7EF0FF0CFEF0FF033501D
:101F9000D8A4CDEF0FF0CFEF0FF0D9EF0FF0000E78
:101FA000216E000E226E000E236E000E246E71EF65
:101FB00011F027502102F3CF38F0F4CF39F0385028
:101FC0002F6E306A316A326A3950346E356A366A39
:101FD000376A26502202F3CF38F0F4CF39F0385068
:101FE0002F26000E30223122322239503426000EA4
:101FF00035223622372225502302F3CF38F0F4CF92
:1020000039F038502F26000E30223122322239503A
:102010003426000E35223622372231C032F030C04D
:1020200031F02FC030F02F6A25502202F3CF38F064
:10203000F4CF39F038502F2639503022000E31229B
:10204000000E322226502102F3CF38F0F4CF39F0BF
:1020500038502F2639503022000E3122000E322205
:1020600031C032F030C031F02FC030F02F6A25502F
:102070002102F3CF38F0F4CF39F038502F26395001
:102080003022000E3122000E322227502202F3CFDE
:1020900038F0F4CF39F03850342639503522000E5C
:1020A0003622000E372226502302F3CF38F0F4CF29
:1020B00039F03850342639503522000E3622000EC1
:1020C000372227502302F3CF38F0F4CF39F03850BD
:1020D000296E39502A6E2B6A2C6A2BC02CF02AC02C
:1020E0002BF029C02AF0296A295034262A5035229B
:1020F0002B5036222C5037222FC029F030C02AF026
:1021000031C02BF032C02CF0190E8CEF10F0D890AB
:102110002C322B322A322932E82E87EF10F0295048
:1021200034262A5035222B5036222C50372231C0EB
:1021300032F030C031F02FC030F02F6A2E5033C053
:1021400029F02A6A2926000E2A22820E2924386EB6
:10215000FF0E2A20396EC2EF10F0D8903436353693
:102160003636373632AEB7EF10F0B9EF10F0BAEFBF
:1021700010F03480D8902F3630363136323638066B
:10218000D8A0390636AEC7EF10F0C9EF10F0ADEFAA
:1021900010F0000E2E6E32AED0EF10F0D2EF10F035
:1021A000F6EF10F0FF0E2F14296EFF0E30142A6E7A
:1021B000FF0E31142B6E7F0E32142C6E29502A1014
:1021C0002B102C10D8B4E7EF10F0E9EF10F0EDEF82
:1021D00010F0010E2E6EF6EF10F034A0F2EF10F0BA
:1021E000F4EF10F0F6EF10F0E9EF10F02E50D8B445
:1021F000FCEF10F0FEEF10F022EF11F0010E34268C
:10220000000E35223622372237A009EF11F00BEFEE
:1022100011F022EF11F034C029F035C02AF036C099
:102220002BF037C02CF02C342C322B322A322932AE
:1022300029C034F02AC035F02BC036F02CC037F05E
:10224000384A392A39BE2DEF11F0395008E13828C3
:10225000D8A02DEF11F02FEF11F039EF11F0000E93
:10226000346E000E356E800E366E7F0E376E67EF61
:1022700011F039BE46EF11F0395006E13804D8B0FC
:1022800044EF11F046EF11F052EF11F0000E346EF2
:10229000000E356E000E366E000E376E000E2D6E7F
:1022A00067EF11F038C033F0FF0E3416FF0E35160D
:1022B0007F0E3616000E371633A061EF11F063EF74
:1022C00011F064EF11F0368ED8903330376E2D5008
:1022D000371234C021F035C022F036C023F037C0A9
:1022E00024F012001050800B1D6E10501024246E2C
:1022F0000FAE7DEF11F07FEF11F080EF11F0248031
:102300002450D8B486EF11F088EF11F09DEF11F052
:102310002428D8A48EEF11F090EF11F098EF11F06F
:10232000000E0D6E000E0E6E000E0F6E000E106E83
:102330000F8E000E106EA5EF11F0000E0D6E000E48
:102340000E6E000E0F6E000E106E1450800B1D1AD4
:1023500014501424256E13AEB0EF11F0B2EF11F04B
:10236000B3EF11F025802550D8B4B9EF11F0BBEFD1
:1023700011F0D0EF11F02528D8A4C1EF11F0C3EF70
:1023800011F0CBEF11F0000E116E000E126E000E68
:10239000136E000E146E138E000E146ED8EF11F033
:1023A000000E116E000E126E000E136E000E146EF3
:1023B0001150121013101410D8A4E1EF11F0E3EF34
:1023C00011F0FBEF11F0000E0D6E000E0E6E000E00
:1023D0000F6E000E106E800E0F127F0E10121D5029
:1023E00010120DC00DF00EC00EF00FC00FF010C097
:1023F00010F03EEF13F02450D8A401EF12F003EFD9
:1024000012F00DEF12F0000E0D6E000E0E6E000EAB
:102410000F6E000E106E3EEF13F0255024C015F025
:10242000166A155E000E165A7F0E15241E6E000EDB
:1024300016201F6E0DC019F00EC01AF00FC01BF051
:1024400010C01CF0000E0D6E000E0E6E000E0F6E12
:10245000000E106E000E206E000E216E000E226E19
:10246000000E236E000E256E6EEF12F02550D8B4CC
:102470003CEF12F03EEF12F055EF12F0D890193603
:102480001A361B361C36D8900D360E360F361036DF
:1024900023AE4DEF12F04FEF12F050EF12F00D801F
:1024A000D89020362136223623361150195C12502E
:1024B0001A5813501B5814501C58D8A062EF12F031
:1024C00064EF12F06DEF12F0238C1150195E125070
:1024D0001A5A13501B5A14501C5A252A190E2564D7
:1024E00074EF12F076EF12F036EF12F019501A1066
:1024F0001B101C10D8B47FEF12F081EF12F099EF8F
:1025000012F0208099EF12F0D8900D360E360F366B
:10251000103623AE8EEF12F090EF12F091EF12F022
:102520000D80D89020362136223623361E06D8A0BC
:102530001F060FAE9EEF12F0A0EF12F084EF12F024
:10254000000E256E23AEA7EF12F0A9EF12F0CDEF2B
:1025500012F0FF0E2014156EFF0E2114166EFF0EE2
:102560002214176E7F0E2314186E155016101710B4
:102570001810D8B4BEEF12F0C0EF12F0C4EF12F092
:10258000010E256ECDEF12F00DA0C9EF12F0CBEFCA
:1025900012F0CDEF12F0C0EF12F02550D8B4D3EF07
:1025A00012F0D5EF12F0F9EF12F0010E0D26000E29
:1025B0000E220F22102210A0E0EF12F0E2EF12F034
:1025C000F9EF12F00DC015F00EC016F00FC017F0A5
:1025D00010C018F01834183217321632153215C0E0
:1025E0000DF016C00EF017C00FF018C010F01E4A04
:1025F0001F2A1FBE04EF13F01F5008E11E28D8A0A9
:1026000004EF13F006EF13F011EF13F0000E1F6E3E
:102610001E68000E0D6E000E0E6E000E0F6E000E88
:10262000106E1FBE1EEF13F01F5006E11E04D8B03F
:102630001CEF13F01EEF13F02CEF13F0000E1F6EC3
:10264000000E1E6E000E0D6E000E0E6E000E0F6E52
:10265000000E106E000E1D6E1EC024F024A033EF7D
:1026600013F035EF13F038EF13F00F8E39EF13F04E
:102670000F9ED8902430106EEFEF11F01200D4C0EE
:1026800036F0D5C037F0D6C038F0D7C039F026C004
:1026900036F027C037F028C038F029C039F0810E55
:1026A0002A6EFF0E2B6E36C02CF037C02DF038C0CE
:1026B0002EF039C02FF0180E63EF13F0D8902F32A0
:1026C0002E322D322C32E82E5EEF13F02C502A24BD
:1026D000346E000E2B20356E35BE78EF13F035507A
:1026E00009E1170E345CD8A078EF13F07AEF13F0FD
:1026F00084EF13F026C026F027C027F028C028F06A
:1027000029C029F047EF14F035BE89EF13F08BEFA5
:1027100013F0FBEF13F034C02AF0FF0E2B6EFF0E08
:102720002C6E7F0E2D6E000E2E6E2A669AEF13F021
:10273000A2EF13F02E342E322D322C322B322A2ED1
:1027400095EF13F02BC030F02CC031F02DC032F0DB
:102750002EC033F0305036142A6E315037142B6EA1
:10276000325038142C6E335039142D6E2A502B10E1
:102770002C102D10D8A4BFEF13F0C1EF13F0C3EF4E
:1027800013F07AEF13F036C02AF037C02BF038C0C0
:102790002CF039C02DF0200ED3EF13F0D8902D324D
:1027A0002C322B322A32E82ECEEF13F02A502B1087
:1027B0002C102D10D8B4DFEF13F0E1EF13F0E9EF98
:1027C00013F03050362631503722325038223350F1
:1027D0003922301C2A6E311C2B6E321C2C6E331C9D
:1027E0002D6E2A5036162B5037162C5038162D5079
:1027F00039163FEF14F036C02AF037C02BF038C03E
:102800002CF039C02DF0200E0BEF14F0D8902D32A3
:102810002C322B322A32E82E06EF14F02A502B10DD
:102820002C102D10D8A417EF14F019EF14F023EF8B
:1028300014F0000E366E000E376E000E386E000E6D
:10284000396E3FEF14F0D89036342A6E37342B6E41
:1028500038342C6E39342D6E2A502B102C102D103C
:10286000D8B435EF14F037EF14F03FEF14F0000E4A
:10287000366E000E376E800E386EBF0E396E36C063
:1028800026F037C027F038C028F039C029F01200F0
:102890001B6E1B50D8B44FEF14F051EF14F073EFD0
:1028A00014F016BE58EF14F056EF14F073EF14F056
:1028B00013C017F014C018F015C019F016C01AF0A4
:1028C000171E181E191E1A1E172A000E182219226A
:1028D0001A2217C01DF018C01EF019C01FF01AC030
:1028E00020F07BEF14F013C01DF014C01EF015C0D3
:1028F0001FF016C020F01350141015101610D8A495
:1029000084EF14F086EF14F090EF14F0000E136EC5
:10291000000E146E000E156E000E166E21EF15F0EF
:10292000960E1C6E9AEF14F01C2AD89020321F329B
:102930001E321D32000E1D14176E000E1E14186E6E
:10294000000E1F14196EFE0E20141A6E1750181068
:1029500019101A10D8A4AFEF14F0B1EF14F094EFDF
:1029600014F0BFEF14F01C2A010E1D26000E1E22CB
:102970001F222022D89020321F321E321D32000E1C
:102980001D14176E000E1E14186E000E1F14196E03
:10299000FF0E20141A6E1750181019101A10D8A410
:1029A000D4EF14F0D6EF14F0B3EF14F0DEEF14F020
:1029B0001C06D8901D361E361F3620361FBEE3EF8C
:1029C00014F0E5EF14F0EDEF14F0020E1C60EBEFE5
:1029D00014F0EDEF14F0D8EF14F01CB0F2EF14F097
:1029E000F4EF14F0F5EF14F01F9ED8901C321CC0C9
:1029F00017F0186A196A1A6A17C01AF0196A186A61
:102A0000176A17501D1218501E1219501F121A5013
:102A100020121B50D8B40FEF15F011EF15F019EF7D
:102A200015F016BE18EF15F016EF15F019EF15F0AA
:102A3000208E1DC013F01EC014F01FC015F020C062
:102A400016F01200000E956E000E966E000E946E3B
:102A5000240E826E42EC1DF00F0EC16E000E0E6E43
:102A60003C0E0D6E6AEC1DF0000E0E6E0C0E0D6E1F
:102A70006AEC1DF084EC1DF00C0EC16EC282C2B275
:102A800044EF15F046EF15F03FEF15F0C45000018C
:102A9000D36FD26BC350D225EC6F000ED321ED6FF4
:102AA000ECC00DF0EDC00EF0000E106E050E0F6EB6
:102AB00057EC1DF00DC013F00EC014F0000E14BE44
:102AC000FF0E156E166E010E48EC14F013C021F0C7
:102AD00014C022F015C023F016C024F06F0E256E2E
:102AE000120E266E830E276E3A0E286E5DEC0FF0E6
:102AF00021C0E8F022C0E9F023C0EAF024C0EBF0E6
:102B0000E8C021F0E9C022F0EAC023F0EBC024F0D5
:102B1000000E256E000E266EC80E276E420E286E21
:102B20005DEC0FF021C048F022C049F023C04AF00C
:102B300024C04BF048C00DF049C00EF04AC00FF061
:102B40004BC010F0B4EC16F00DC0DEF00EC0DFF09C
:102B5000060E0001D36F130ED26FAD0EE82EFED716
:102B6000D22FFCD7D32FFAD700D0000E956E000ECF
:102B70000E6E800E0D6E6AEC1DF0100E116E080EBA
:102B8000126E4AEC1BF0000E0E6EC00E0D6E6AEC5B
:102B90001DF0E00E0001C26F000EC36F1C0EC46F6B
:102BA000080EC56F48C0C6F049C0C7F04AC0C8F09B
:102BB0004BC0C9F017EC1CF0E00E116E000E126E47
:102BC0004AEC1BF0010E116E080E126E4AEC1BF05F
:102BD0003CEF15F007EF00F0000E226E000E216EA4
:102BE000000E1B6E000E1A6EF8EF15F0144A152A2F
:102BF000010E206E14C0F6FF15C0F7FF0800F55057
:102C0000200AD8B406EF16F008EF16F025EF16F0FC
:102C1000F70E166EFF0E176E14C0F6FF15C0F7FF05
:102C20000800F550186E196A165018261750192208
:102C3000195009E1050E185CD8A021EF16F023EF1A
:102C400016F025EF16F0000E206E20C01CF01D6A55
:102C50001C501D10D8A42FEF16F031EF16F0F6EF30
:102C600015F03BEF16F0000E1B6E010E1A6E144AA3
:102C7000152A70EF16F014C0F6FF15C0F7FF080014
:102C8000F550166E176A1750000AD8B44AEF16F0BE
:102C900070EF16F016502B0AD8B437EF16F0060A6C
:102CA000D8B433EF16F070EF16F021C00DF022C04B
:102CB0000EF0000E106E0A0E0F6E57EC1DF014C0D1
:102CC000F6FF15C0F7FF0800F5500D5E000E0E5A16
:102CD000300E0D24216E000E0E20226E37EF16F0FE
:102CE000D00E166EFF0E176E14C0F6FF15C0F7FF5C
:102CF0000800F550186E196A165018261750192238
:102D000019500AE10A0E185CD8A089EF16F08CEF72
:102D100016F0010E8DEF16F0000E1E6E1F6A1E508B
:102D20001F10D8A496EF16F098EF16F055EF16F096
:102D30001A501B10D8A49FEF16F0A1EF16F0AFEFBA
:102D400016F021C016F022C017F0161E171E164AE4
:102D5000172A16C014F017C015F0B3EF16F021C0F3
:102D600014F022C015F012000F341034166E1650F5
:102D7000D8A4BDEF16F0BFEF16F0C9EF16F0000EA5
:102D80000D6E000E0E6E000E0F6E000E106E36EF02
:102D900017F00DC011F00EC012F00FC013F010C0EC
:102DA00014F0200ED9EF16F0D890143213321232EC
:102DB0001132E82ED4EF16F01150156E0F8EFF0E63
:102DC0000D16FF0E0E16FF0E0F16000E1016960EA5
:102DD000165E16BEF0EF16F0EEEF16F006EF17F0E7
:102DE0001650800A970FD8B0F8EF16F0FAEF16F0E9
:102DF000FCEF16F0BFEF16F0D89010320F320E3203
:102E00000D32163EFCEF16F01EEF17F01F0E166483
:102E10000CEF17F00EEF17F016EF17F0BFEF16F0EC
:102E2000D8900D360E360F36103616061650D8A42A
:102E30001CEF17F01EEF17F010EF17F01550D8B475
:102E400024EF17F026EF17F02EEF17F0101E0F1ECD
:102E50000E1E0D6C000E0E220F2210220DC00DF062
:102E60000EC00EF00FC00FF010C010F01200000ED8
:102E70003A14426E000E3B14436E800E3C14446EB6
:102E80007F0E3D14456E4250431044104510D8A4A7
:102E90004CEF17F04EEF17F056EF17F0000E3A6EAA
:102EA000000E3B6E000E3C6E000E3D6E000E3E149A
:102EB000426E000E3F14436E800E4014446E7F0E2F
:102EC0004114456E4250431044104510D8A46BEF96
:102ED00017F06DEF17F075EF17F0000E3E6E000E55
:102EE0003F6E000E406E000E416E3DAE7AEF17F061
:102EF0007CEF17F085EF17F03A6C3B1ED8B03B2AF9
:102F00003C1ED8B03C2A800E3D5641AE8AEF17F0E9
:102F10008CEF17F095EF17F03E6C3F1ED8B03F2AAC
:102F2000401ED8B0402A800E4156000E3A1A000EBC
:102F30003B1A000E3C1A800E3D1A000E3E1A000E7F
:102F40003F1A000E401A800E411A3E503A5C3F5024
:102F50003B5840503C5841503D58D8B0B2EF17F064
:102F6000B4EF17F0B7EF17F0D890B8EF17F0D8809C
:102F70001200000E0114096E000E02140A6E800E7B
:102F800003140B6E7F0E04140C6E09500A100B1004
:102F90000C10D8A4CEEF17F0D0EF17F0D8EF17F041
:102FA000000E016E000E026E000E036E000E046E27
:102FB000000E0514096E000E06140A6E800E07142A
:102FC0000B6E7F0E08140C6E09500A100B100C10BB
:102FD000D8A4EDEF17F0EFEF17F0F7EF17F0000EB2
:102FE000056E000E066E000E076E000E086E04AE33
:102FF000FCEF17F0FEEF17F007EF18F0016C021E60
:10300000D8B0022A031ED8B0032A800E045608AE98
:103010000CEF18F00EEF18F017EF18F0056C061E05
:10302000D8B0062A071ED8B0072A800E0856000E10
:10303000011A000E021A000E031A800E041A000E66
:10304000051A000E061A000E071A800E081A0550FF
:10305000015C065002580750035808500458D8B075
:1030600034EF18F036EF18F039EF18F0D8903AEF47
:1030700018F0D8801200D8C017F0D9C018F0DAC004
:1030800019F0DBC01AF00DC017F00EC018F00FC019
:1030900019F010C01AF017C011F018C012F019C0C2
:1030A00013F01AC014F0180E5BEF18F0D890143219
:1030B000133212321132E82E56EF18F01150156EFD
:1030C000166A15501610D8A468EF18F06AEF18F0B9
:1030D0008AEF18F0D8901734116E1834126E193424
:1030E000136E1A34146E1150121013101410D8A449
:1030F0007CEF18F07EEF18F084EF18F0000E0E6EE3
:10310000020E0D6EB9EF18F0000E0E6E030E0D6E6E
:10311000B9EF18F015281610D8A491EF18F093EF16
:1031200018F0B5EF18F017C011F018C012F019C060
:1031300013F01AC014F0090ED89011361236133657
:103140001436E82E9CEF18F01150121013101410C2
:10315000D8B4ADEF18F0B0EF18F0010EB1EF18F0E1
:10316000000E0D6E0E6AB9EF18F0000E0E6E040E12
:103170000D6E12000DC014F00EC015F00FC016F049
:1031800010C017F01106D8A01206112806E1122867
:10319000D8A4CDEF18F0CFEF18F0DCEF18F0000E48
:1031A0000E6E000E0D6E24EF19F0144A152A164A01
:1031B000172A1106D8A0120614C0D9FF15C0DAFFCD
:1031C000DF50D8B4E6EF18F0E8EF18F013EF19F07D
:1031D00016C0F6FF17C0F7FF0800F5500009D8B475
:1031E000F4EF18F0F6EF18F013EF19F01150121079
:1031F000D8B4FDEF18F0FFEF18F013EF19F014C07A
:10320000D9FF15C0DAFFDF50136E16C0F6FF17C0E6
:10321000F7FF0800F5501318D8B411EF19F013EFA9
:1032200019F0D5EF18F014C0D9FF15C0DAFFDF5040
:10323000136E16C0F6FF17C0F7FF0800F550135CB9
:103240000D6E0E6AD8A00E0612000F501010D8B4E2
:103250002CEF19F02EEF19F037EF19F00F50101076
:10326000D8A435EF19F037EF19F03CEF19F00D50F5
:103270008BEC1DF089EF19F020EE04F00F50D926E9
:103280001050DA22DE50DE10D8B449EF19F04BEFBF
:1032900019F066EF19F020EE04F00F50D926105007
:1032A000DA2210EE02F00F50E1261050E222DE503A
:1032B000E65CE650800A156EDE50800A1558D8B0DC
:1032C00064EF19F066EF19F089EF19F020EE02F0C3
:1032D0000F50D9261050DA22DECF11F0DDCF12F0D8
:1032E0000FC0D9FF10C0DAFFDECF13F0DDCF14F02E
:1032F00011501324D96E12501420DA6E0DC0DFFF66
:1033000020EE02F00F50D9261050DA22DE2A000EED
:10331000DD221200000E126E10BE93EF19F091EF35
:1033200019F099EF19F00F6C101ED8B0102A010E89
:10333000126E0EBEA0EF19F09EEF19F0A6EF19F075
:103340000D6C0E1ED8B00E2A010E121A000E146E4D
:10335000000E136E0F501010D8B4B1EF19F0B3EF88
:1033600019F0DBEF19F0010E116EBBEF19F0D890D8
:103370000F361036112A10AEC0EF19F0C2EF19F057
:10338000B7EF19F0D890133614360F500D5C10506B
:103390000E58D8A0CEEF19F0D0EF19F0D5EF19F0F4
:1033A0000F500D5E10500E5A1380D89010320F320D
:1033B000112EC2EF19F01250D8B4E1EF19F0E3EF7B
:1033C00019F0E7EF19F0136C141ED8B0142A13C0CB
:1033D0000DF014C00EF0120050A0F1EF19F0F3EF51
:1033E00019F0FDEF19F01FC016F020C017F01DC036
:1033F00018F01EC019F0B3EC1CF022BE02EF1AF058
:1034000004EF1AF00AEF1AF021C026F022C027F0CC
:103410000EEF1AF0000E276E000E266E000E256EBF
:10342000000E246E20EF1AF0000E0E6E200E0D6EB0
:103430001DC00FF01EC010F025EC19F0244A252AFB
:103440002650245C2550800A236E2750800A23587A
:10345000D8A02DEF1AF02FEF1AF014EF1AF050B099
:1034600034EF1AF036EF1AF040EF1AF01FC016F0E2
:1034700020C017F01DC018F01EC019F0B3EC1CF0EE
:103480001FC00DF020C00EF069EC1CF026500D247A
:103490001D6E27500E201E6E1200000E126E0EBE04
:1034A00056EF1AF054EF1AF05CEF1AF00D6C0E1E86
:1034B000D8B00E2A010E126E10BE63EF1AF061EF43
:1034C0001AF067EF1AF00F6C101ED8B0102A0F50C8
:1034D0001010D8B46EEF1AF070EF1AF094EF1AF0E3
:1034E000010E116E78EF1AF0D8900F361036112AAF
:1034F00010AE7DEF1AF07FEF1AF074EF1AF00F5054
:103500000D5C10500E58D8A088EF1AF08AEF1AF010
:103510008EEF1AF00F500D5E10500E5AD8901032E8
:103520000F32112E7FEF1AF01250D8B49AEF1AF022
:103530009CEF1AF0A0EF1AF00D6C0E1ED8B00E2AF8
:103540000DC00DF00EC00EF01200000E0D14156E21
:10355000000E0E14166E800E0F14176E7F0E1014D0
:10356000186E1550161017101810D8A4BAEF1AF0CC
:10357000BCEF1AF0C4EF1AF0000E0D6E000E0E6EC6
:10358000000E0F6E000E106E000E1114156E000E60
:103590001214166E800E1314176E7F0E1414186E0C
:1035A0001550161017101810D8A4D9EF1AF0DBEF29
:1035B0001AF0E3EF1AF0000E116E000E126E000EFC
:1035C000136E000E146E11500D180FE112500E18EC
:1035D0000CE113500F1809E114501018D8B4F3EF90
:1035E0001AF0F5EF1AF0F8EF1AF0D890F9EF1AF098
:1035F000D88012000600F0A000EF1BF002EF1BF0D5
:103600000CEF1BF0F090000E0001E86F000EE96F68
:10361000800EEA6F3F0EEB6FF2AA11EF1BF013EF73
:103620001BF048EF1BF0F2A418EF1BF01AEF1BF091
:1036300048EF1BF048C001F049C002F04AC003F057
:103640004BC004F0000E056E000E066E480E076EAD
:10365000420E086EB9EC17F0D8B031EF1BF033EF23
:103660001BF045EF1BF0000E016E000E026EF00E17
:10367000036E410E046E48C005F049C006F04AC012
:1036800007F04BC008F0B9EC17F0050ED66EF294B7
:1036900052921100000E196E000E186E11C00DF03E
:1036A00012C00EF069EC1CF00DC016F00EC017F041
:1036B00078EF1BF018501124136E19501220146E5D
:1036C00013C0F6FF14C0F7FFF86A070EF76403D0C3
:1036D0000800F55005D0F6CFE1FFF7CFE2FFE75045
:1036E000156E15500D6E0E6A77EC1DF0184A192AEA
:1036F0001650185C1950800A136E1750800A135820
:10370000D8A085EF1BF087EF1BF05AEF1BF01200DB
:10371000BEC046F0BFC047F0000E0001DD6F000ED6
:10372000DC6FA6EF1BF0BCC0A4F0BDC0A5F0460E38
:10373000A66F000EA76FC0C0A8F0C1C0A9F048ECEA
:103740000AF00001A451DC27A551DD2346C0F6FF95
:1037500047C0F7FF0800F5500009D8A4B2EF1BF0EE
:10376000B4EF1BF093EF1BF0DCC0BCF0DDC0BDF08C
:103770001200BF0E156EFF0E166E13C017F014C0A8
:1037800018F0155017261650182218500AE11A0E74
:10379000175CD8A0CEEF1BF0D1EF1BF0010ED2EFDB
:1037A0001BF0000E196E1A6A19501A10D8B4DBEF0C
:1037B0001BF0DDEF1BF0E4EF1BF0200E1310136E77
:1037C0001450146EE8EF1BF013C013F014C014F083
:1037D00012000FC013F010C014F00DC015F00EC091
:1037E00016F01350116E1450126E134A142A11C0A1
:1037F000F6FF12C0F7FFF86A15C0D9FF16C0DAFF4E
:10380000154A162A070EF76403D00800F55005D0B4
:10381000F6CFE1FFF7CFE2FFE750DF6EDF50D8A42D
:1038200014EF1CF016EF1CF0F1EF1BF01200C60EA7
:103830000001CA6F000ECB6FC2C0CCF0C3C0CDF088
:10384000000ECF6F000ECE6F000ED16F000ED06F46
:10385000CC0EBC6F000EBD6FC4C0BEF0C5C0BFF0C3
:10386000CA0EC06F000EC16F88EC1BF00001CE5174
:10387000C225D96ECF51C321DA6E000EDF6E120061
:10388000010E136E200E0D180E10D8B44AEF1CF066
:103890004CEF1CF065EF1CF0F70E0F6EFF0E106E74
:1038A0000DC011F00EC012F00F5011261050122250
:1038B000125009E1050E115CD8A061EF1CF063EF16
:1038C0001CF065EF1CF0000E136E13C00DF00E6AB5
:1038D00012000DC00FF00EC010F071EF1CF00D4A79
:1038E0000E2A0DC0F6FF0EC0F7FFF86A070EF76448
:1038F00003D00800F55005D0F6CFE1FFF7CFE2FF87
:10390000E7500009D8A487EF1CF089EF1CF06FEF97
:103910001CF00F500D5C0D6E10500E580E6E120004
:10392000000E3E1A000E3F1A000E401A800E411A79
:103930003AC00DF03BC00EF03CC00FF03DC010F09F
:103940003EC011F03FC012F040C013F041C014F06F
:10395000FDEC0CF00DC03AF00EC03BF00FC03CF097
:1039600010C03DF01200000E1C6E000E1B6EC4EF66
:103970001CF01AC00DF00E6A18C00FF019C010F03C
:1039800025EC19F01B4A1C2A1B501624D96E1C501A
:103990001720DA6EDF501A6E1A50D8A4D2EF1CF03E
:1039A000D4EF1CF0B9EF1CF01200BF0E0F6EFF0E2B
:1039B000106E0DC011F00EC012F00F5011261050F5
:1039C000122212500AE11A0E115CD8A0EAEF1CF084
:1039D000EDEF1CF0010EEEEF1CF0000E0D6E0E6A06
:1039E00012000D500E100F101010D8B4FAEF1CF08A
:1039F000FCEF1CF004EF1DF0000E0D1A000E0E1A65
:103A0000000E0F1A800E101A0DC00DF00EC00EF031
:103A10000FC00FF010C010F01200D00E0F6EFF0E8E
:103A2000106E0DC011F00EC012F00F501126105084
:103A3000122212500AE10A0E115CD8A022EF1DF0EA
:103A400025EF1DF0010E26EF1DF0000E0D6E0E6A23
:103A5000120001EE00F0500EEE6AE806FDE100EE05
:103A6000D4F01A0EEE6AE806FDE100EE48F00A0E08
:103A7000EE6AE806FDE152905292000EF86E0001E7
:103A800022EF15F0070E926E0C0EC16EC050F80BAF
:103A90000609C06EC050C70B2009C06EC08E000E54
:103AA000C26EC250C30B0809C26EC28012000D5014
:103AB0000F02F3CF11F0F4CF12F00D501002F350BB
:103AC00012260E500F02F350122611C00DF012C034
:103AD0000EF01200849484820DC083FF030E0F6EDB
:103AE000980EE82EFED70F2EFCD784921200848405
:103AF00084820DC083FF030E0F6E980EE82EFED752
:103B00000F2EFCD784921200000E0E6E010E0D6E69
:083B10006AEC1DF01200120026
:020000040020DA
:08000000FFFFFFFFFFFFFFFF00
:020000040030CA
:0E000000000C1F1EFF0385FF0FC00FE00F4016
:00000001FF
